:020000040000FA
:06000000020A1C0201C30C
:03002B00021E842E
:0300330002067949
:0300430002087739
:03004B000206F1B9
:0300530002012384
:03005B0002070099
:0300630002070F82
:03006B0002065F2B
:1000830002015C010101010503010F10FEFF0300E2
:100093000300030003000300030003000300030045
:1000A30005000A00140028004F009E000000C5113F
:1000B300C511C511C5117B107510C511B7210000FD
:1000C3000000DD22000000000C0000000C00010015
:1000D300004513000000000000D5130000000000DD
:1000E300000000E604FF0101010029110000009D4A
:1000F30011E80364006400B801020200080000056F
:1001030001071E02051E020A03B80B803E01FFFF12
:10011300010202060606060600141414141400064F
:10012300C0E074F21203D1E5A7FAE5A1FBEA5B5440
:10013300106008121A6B53A1EF8019EAA2E0C0D035
:10014300EBA2E092F012096C158182F05006121BAB
:100153001353A1FE7F01020488C0E074F21203D19D
:100163009061A4E0FA759B00E5915A540860087504
:1001730091F7121AB9802AE5915A541060087591C3
:10018300EF121ABF801BEAA2E0C0D0E591A2E09271
:10019300F012096C158182F05007E0C2E0F0121BE7
:1001A300E59061A3E0FAE5E95A5404600E121BBB23
:1001B30075E9FB906193E0A2E640F27F01020488B7
:1001C300C0E074F21203D19061A5E0FAE5BF5A547E
:1001D30004600653BFFB121BFD7F01020488C3E4C6
:1001E30098F8E499F91202228026C3E49AFAE49B70
:1001F300FBE920E7E9120222E498F8E499F922C323
:10020300E498F8E499F9120222E498F8E499F9C31E
:10021300E49AFAE49BFB22EB20E7CFE920E7E0B97D
:100223000010BB0008E88AF084F8AAF022E4FBC8B7
:10023300FA22EB70227B10C833C8C933C933500785
:10024300C39AC3DBF280069A50012ADBEAC833F46F
:10025300C8C933F4C9FA2275F008E4C833C8C933EE
:10026300C933C99AC99B5004C92AC93BD5F0ECFBD1
:10027300C833F4C8E4C9FA22080808EAC0E0EBC0AE
:10028300E086F0E7A4FA180986F0E7A42AFA180929
:1002930086F0E7A42AFA180986F0E7A42AFA198651
:1002A300F0E7A4FBE5F02AFA190886F0E7A42BFB94
:1002B300E5F03AFA190886F0E7A42BFBE5F03AFAE1
:1002C30018180986F0E7A4C5F02BFBE43AFA1908DD
:1002D300E7C5F0C6A426F6E5F03BFBE43AFA188638
:1002E300F0E7A4F6E5F00826F6E43B08F6E43A085E
:1002F300F6D0E0FBD0E0FA22E4CFC0E0E4CEC0E0E9
:10030300E4CDC0E0E4CCC0E075F020C3E633F608EA
:10031300E633F608E633F608E633F6181818EC3336
:10032300FCED33FDEE33FEEF33FFC3EC9709ED979E
:1003330009EE9709EF97191919400FFFEC97FC097C
:10034300ED97FD09EE97FE191906D5F0BEECF709F6
:10035300EDF709EEF709EFF7191919D0E0FCD0E032
:10036300FDD0E0FED0E0FF222510C582C0E0E511FC
:1003730034FFC583C0E0E510C3958224F8F8E4C5D3
:10038300A8858311858210C5A8E8CEF0A3E520F0E7
:10039300A37808E608F0A3DEFAEFF0A3E58124FAD8
:1003A300F8E608F0A3E608F0A3E608F0A30808E6D9
:1003B30008F0A3E608F0A315811581D0E0FED0E094
:1003C300F8158115811581E8C0E0EEC0E022C0D0A8
:1003D3002510C582C0E0E51134FFC583C0E0E510F8
:1003E300C3958224F310AF0885831185821080089A
:1003F300858311858210D2AFC8F0A3E9F0A3EAF098
:10040300A3EBF0A37908E709F0A3D8FAECF0A3ED86
:10041300F0A3EEF0A3EFF0A3D0E0F0A3D0E0F0A3BD
:10042300D0E0F0A3E520F0A3E5F0F0A322120A66E2
:10043300B90003020472E49003017819791780026A
:10044300F0A3D8FCD9FA901919AA82AB839000863D
:10045300789E79018015E493A3AC82AD838A828B65
:1004630083F0A3AA82AB838C828D83D8E9D9E77505
:1004730082207583BB740312056A75827F75831EA0
:10048300740012056A851183851082E0C0E0A3E041
:10049300F9A3E0FAA3E0FBA37808E0F608A3DFFAE8
:1004A300E0FCA3E0FDA3E0FEA3E0FFA3E0C0E0A324
:1004B300E0C0E0A3E0F5D0A3E0F520A3E0A3F5F0CE
:1004C300E4C5A8858311858210C5A8D082D083D0C6
:1004D300E0F8D0E032D083D082ECC0E0EDC0E0E4BD
:1004E30093A3FCE493A3FDED4C600D1205ACEC2447
:1004F300FFFCED34FFFD80EFE493A3FCE493A3FD45
:10050300ED4C600D12071EEC24FFFCED34FFFD8063
:10051300EFD0E0FDD0E0FCE493A3C0E0E493C0E0BF
:1005230022D083D082E9C0E0E493A3C386F0C5F070
:1005330095F0F908E493A386F0C5F095F0700BE409
:1005430093A3C3994005E9048002A3E475F002A4D0
:100553002582F582E5F03583F583D0E0F9E493A3B2
:10056300C0E0E493C0E022F5F0E59F5407C0E0E566
:100573009F54F845F0F59FE473859FF053F0F8D04E
:10058300E045F0F59F22D083D082E59F5407C0E079
:10059300E493C0E0740193C0E07402935407F5F050
:1005A300E59F54F845F0F59F22C0E0C3E493960815
:1005B3007401939618400FE49366700808740193CE
:1005C300661870007019A3A3C3E49396087401938B
:1005D3009618A3A3400DD0E0D0E0D0E0020514A309
:1005E300A3A3A3A3A3D0E022851183851082E0A354
:1005F300FEE0A3F5207808E0A3F608DFFAE0A3FF06
:10060300E0A3C0E0E0A3C0E0E0A3C0E0E0A3C0E05B
:10061300E0A3C0E0E4C5A8858210858311C5A8D0F6
:1006230083D08202057CD083D082C5F0E493A3C536
:10063300F0C395F0F5F0E493A3C395F04005E5F01E
:10064300048001E475F002A42582F582E5F0358388
:10065300F583E493A3C0E0E493C0E022C0E074F226
:100663001203D1E589A2E15003121903758900C26F
:10067300C57F01020488C0E074F21203D1E58BA2A6
:10068300E05003121903758B00C2E87F010204884E
:100693007404800474028000CCC0E0EDC0E0E51077
:1006A300C39CCCAD1150011D10AF068C108D118071
:1006B300068C108D11D2AF120795D0E0FDD0E0FC6F
:1006C3002274028000CCC0E0EDC0E0E510C39CCCF6
:1006D300AD1150011D10AF068C108D1180068C10CA
:1006E3008D11D2AF120773D0E0FDD0E0FC22C0E041
:1006F30074F21203D112198D7F01020488C0E074D1
:10070300F21203D11219937F01020488C0E074F23C
:100713001203D11219997F01020488C0E0C0F08846
:10072300F0E4936670080874019366187000A8F0EB
:10073300A3A3700BD0F0D0E0D0E0D0E0020514A367
:10074300A3D0F0D0E022D083D082CCC0E0E493A346
:1007530060061207B61470FAE493A360061208A4A5
:100763001470FAD0E0FCE493A3C0E0E493C0E02269
:10077300CAC0E0E493A3C582CCC582C583CDC5833B
:10078300F0A3C582CCC582C583CDC583DAE5D0E0AD
:10079300CA22CAC0E0E0A3C582CCC582C583CDC549
:1007A30083F0A3C582CCC582C583CDC583DAE6D0E9
:1007B300E0CA22C0E0E493A3D39C5010E493A3C304
:1007C3009C400AD0E0D0E0D0E0020766A3A3A3D008
:1007D300E0227009080808226016181818C6C333E7
:1007E300C608C633C608C633C608C633C6D5E0EA4C
:1007F300222510F58210AF08F5104002151180086C
:10080300F51040021511D2AF851183227404800ABA
:1008130074038006740280027401C0E0F4041207BA
:10082300F4D0E0120A5922C0D0251010AF08F510F9
:10083300500205118008F51050020511D2AFD0D037
:1008430022BB0102E722C082C08389828A83BB0064
:1008530003E08002E493D083D08222601608080864
:10086300C6C313C618C613C618C613C618C613C6FE
:10087300D5E0EA22C0E074F21203D1C2C0E5D1A2EE
:10088300E450031219C97F01020488251010AF0830
:10089300F510400215118008F51040021511D2AF72
:1008A30022C0E0E493A36C7009D0E0D0E0D0E00272
:1008B3000766A3A3D0E022E066701008A3E0667089
:1008C3000A08A3E066700408A3E06622C3E796085B
:1008D30009E7960809E7960809E796A2D265D03397
:1008E30022C3E09608A3E09608A3E09608A3E09647
:1008F300A2D265D03322C3E096F008A3E096F008B5
:10090300A3E096F008A3E096F022E026F008A3E027
:1009130036F008A3E036F008A3E036F022E026F62E
:1009230008A3E036F608A3E036F608A3E036F6227D
:10093300E627F60809E637F60809E637F60809E672
:1009430037F622E657F60809E657F60809E657F69A
:100953000809E657F622E056F608A3E056F608A380
:10096300E056F608A3E056F622C0E0E8C0E0E581D1
:1009730024FCF8E6A2E7D0E0F8D0E022E046F00855
:10098300A3E046F008A3E046F008A3E046F022E027
:1009930056F008A3E056F008A3E056F008A3E0568B
:1009A300F022E647F60809E647F60809E647F6089F
:1009B30009E647F622700422600D18C6C333C60841
:1009C300C633C6D5E0F41822E4C396F608E496F6D7
:1009D30008E496F608E496F622600D08C6A2E7132B
:1009E300C618C613C6D5E0F322C6F4C608C6F4C6B5
:1009F30008C6F4C608C6F4C622C3E7960809E796F4
:100A03000809E7960809E79622C3E09608A3E0964B
:100A130008A3E09608A3E0962275D000758140757F
:100A2300100175110300020430600C08C6C313C61D
:100A330018C613C6D5E0F422E6F008A3E6F008A32F
:100A4300E6F008A3E6F022E0F608A3E0F608A3E048
:100A5300F608A3E0F622CAC0E0E6F0A308DAFAD06B
:100A6300E0FA2274F855C74401F5C779012225102D
:100A7300F582E43511F58322120589B2840112054A
:100A830089D38401120589238501120589DD850136
:100A9300120589638601120589E98601120589C653
:100AA3008701120589F3870112058942880112051E
:100AB300896A8801120589948901120589BA890115
:100AC300120589CC8901120589D68901120589800D
:100AD3008A01120589F58A01120589BC8B01120569
:100AE30089C48B01120589B48C011205892D8D01EE
:100AF300120589818D01120589F68D011205899EE2
:100B03008F01120589B28F01120589149001120514
:100B130089939001120589E99001120589039201D5
:100B2300120589F59201120589599301120589D598
:100B330093011205893794011205896F94011205F7
:100B4300897C95011205897C9601120589D9960144
:100B53001205892297011205894A9701120589CD49
:100B630097011205896B9801120589D19801120525
:100B730089E29801120589649901120589029A0193
:100B8300120589439A01120589D79A011205890C26
:100B93009B011205891F9B011205896D9B0112059B
:100BA30089AE9B01120589489D01120589DB9E01CF
:100BB300120589009F01120589739F01120589B2ED
:100BC3009F01120589ED9F011205890EA1011205EE
:100BD30089DFA201120589E9A201120589F3A201A5
:100BE300120589FDA20112058917A30112058921A6
:100BF300A3011205892BA30112058935A30112054F
:100C03008956A301120589A8A301120589CCA30162
:100C1300120589F0A30112058949A4011205898EE1
:100C2300A401120589ACA40112058923A5011205AB
:100C33008961A50112058997A50112058920A601DD
:100C430012058981A601120589B6A7011205897EBD
:100C5300A80112058966A901120589F5AB011205E0
:100C63008970AD0112058923AF011205897EAF0199
:100C730012058985B001120589CEB0011205898458
:100C8300B10112058923B2011205894BB201120584
:100C9300891EB30112058914B50112058946B501F0
:100CA300120589ABB501120589A4B601120589EBBA
:100CB300B60112058931B70112058990B7011205F2
:100CC30089DEB8011205892AB90112058934BA01EE
:100CD300120589BFBC01120589E3BC01120589B560
:100CE300BE011205890CBF0112058908C001120556
:100CF3008963C0011205899DC001120589C8C0011D
:100D0300120589BDC10112058901C2011205893D80
:100D1300C201120589D2C201120589D5C201120589
:100D23008940C30112058910250012058962250037
:100D33001205894F2700120589EC27001205892027
:100D43002800120589482900120589F92B0012058C
:100D530089862C001205893633001205890A36006C
:100D6300120589F63600120589A43700120589BFDA
:100D73003800120589DE3B00120589B13D001205DA
:100D830089113E00120589E73E00120589733F0071
:100D93001205899E3F001205893E40001205892BEA
:100DA30041001205890C4200120589E64200120532
:100DB30089134300120589354300120589964500BE
:100DC3001205894E4600120589A546001205890FB2
:100DD3004700120589D44700120589094800120506
:100DE300895D48001205898D4800120589CB4800AA
:100DF3001205891949001205891E490012058975D2
:100E030049001205899D49001205899D4A00120572
:100E1300891E4B001205890F4D00120589CC4D0028
:100E23001205894F4F00120589F350001205899965
:100E330051001205897E52001205890753001205DD
:100E4300894E5300120589C05400120589D45400F9
:100E5300120589E154001205890B55001205891703
:100E630055001205893555001205891957001205D9
:100E7300894557001205895257001205899057007A
:100E83001205897B5800120589BF58001205896530
:100E93005900120589505A00120589005B0012059A
:100EA300893A5C00120589085D00120589B35D006B
:100EB3001205894C5E00120589635E00120589875D
:100EC3005E00120589915E001205899D5E00120580
:100ED30089BB5E00120589FF5E001205896D5F0004
:100EE300120589D95F001205893260001205899ABB
:100EF3006000120589AB61001205895D620012056D
:100F030089446300120589A263001205892A6400DB
:100F1300120589196500120589486500120589AF14
:100F23006500120589896600120589AF66001205FE
:100F330089656700120589916700120589186800A1
:100F43001205898D6800120589C76800120589F3A7
:100F53006800120589286900120589B16900120524
:100F630089DA69001205894E6A00120589C36A008D
:100F7300120589E86A001205892E6B001205894B58
:100F83006B00120589F76B0012058922E203120533
:100F9300896DE20312058924C40112058958C4012D
:100FA30012058916C50112058905C6011205890EA8
:100FB300C70112058995C80112058902C9011205E5
:100FC30089B6C901120589C9CA0112058934CB0141
:100FD30012058973CB01120589B5CB01120589BFAF
:100FE300CB0112058905CC011205896BCC011205D1
:100FF3008903CD0112058979CD0112058965CE01D9
:10100300120589E0CE01120589FACE011205892C59
:10101300CF0112058959CF01120589F0CF011205BD
:101023008900D00112058953D0011205895FD001CF
:101033001205896BD00112058974D001120589D577
:10104300D00112058930D10112058981D101120520
:10105300899CD101120589D2D101120589F3D101ED
:10106300120589FFD1011205896ED3011205898CFE
:10107300D301120589FED30112058911D40112058A
:101083008925D401120589C4D401120589D1D5015A
:10109300120589F3D6011205896BD70112058975EB
:1010A300D701120589DAD701120589EBD701120599
:1010B300892BD80112058969D8011205899FD801A6
:1010C300120589D5D801120589F3D80112058917AC
:1010D300D90112058958D9011205894ADA01120585
:1010E3008990DA01120589BBDA011205891EDB0139
:1010F30012058945DB011205898ADB0112058998EE
:10110300DB01120589F1DB011205892EDC011205D1
:101113008975DC01120589A6DC01120589C9DC0188
:10112300120589D4DC01120589F2DC01120589B2AA
:10113300DD01120589BCDD01120589FBDD01120504
:101143008911DE011205896CDE0112058980DE0139
:101153001205895CDF011205896FDF01120589849D
:10116300DF011205892CE00112058978E0011205DF
:101173008932E1011205893DE1011205896AE20123
:1011830012058986E201120589E3E2011205892429
:10119300E3011205893EE301120589AFE30112055C
:1011A300893BE40112058972E401120589E3E60132
:1011B3001205896AE701120589EDE7011205892EF7
:1011C300EA011205893EEA0112058941EA01120585
:1011D300894DEA0112058961EA0112058969EA016B
:1011E3001205899EEA0112058963EB01120589CD77
:1011F300EB0112058931EC01120589B6EC011205E8
:101203008967ED0112058995ED0112058925EE0126
:1012130012058931EE0112058960EE0112058982FA
:10122300EE01120589A9EE011205890EEF011205DF
:1012330089C1F001120589C4F0011205892DF1015C
:1012430012058920F20112058907F301120589921B
:10125300F301120589D5F4011205898CF5011205F4
:1012630089C5F501120589F6F501120589FFF50116
:10127300120589D0F60112058960F701120589FE6E
:10128300F701120589BEF80112058937F901120524
:101293008966F901120589A3F901120589B4E602E9
:1012A300120589C6E60212058940E702120589780C
:1012B300E702120589D2E70212058980EA021205C4
:1012C3008912ED02120589ECEF0212058926F0025C
:1012D3001205894AF002120589C6F0021205890631
:1012E300F1021205892BF1021205895DF102120543
:1012F30089A2F1021205897FB703120589F7B703A3
:10130300120589CBB8031205896CB90312058963E9
:10131300BA0312058995BA0312058980DA03120507
:101323008999DA03120589E4DA031205892FDB03AD
:10133300120589CCDB03120589CBD503120589225B
:10134300D7031205890892031205898992031205AE
:1013530089939203120589CF9203120589E79203B9
:101363001205895D930312058994930312058990ED
:101373009403120589419503120589C39503120548
:10138300893396031205896C960312058902970324
:101393001205893497031205898E97031205893242
:1013A300D00312058949D003120589E4D00312053D
:1013B3008996D103120589C5D1031205899DBE0300
:1013C3001205892CBF031205893CBF0312058961ED
:1013D300BF0312058993DA021205894E82011205B1
:1013E3008988DB02120589ECDB0212058974DC02B1
:1013F300120589FDDC021205898CDD0212058915AF
:10140300DE02120589B2DF021205893BE0021205F2
:1014130089C4E00212058935E10212058918E20246
:1014230012058963E20212058918E4021205897222
:1014330084011205897CE602120589E6F102120590
:1014430089F4F1021205893EF202120589EEF202D5
:101453001205890DF302120589F6F302120589219B
:10146300F7021205892FF70212058987F702120581
:1014730089BCF70212058924F802120589BAF80219
:101483001205890FF90212058977F902120589AF4E
:10149300F9021205892FFA021205898DFA02120543
:1014A30089D4FA0212058920FB0212058930FB0256
:1014B30012058940FB0212058963FB02120589109C
:1014C300FC0212058956FC021205894FDE03120540
:1014D300890DDF0312058977E20312058922CE0302
:1014E30012058990CE03120589B8CE03120589BB74
:1014F300CF03120589316C001205891C6D0012059A
:1015030089616D00120589586F001205899D6F006E
:101513001205896A7100120589B57100120589B631
:1015230072001205896C7300120589E573001205B8
:10153300898D7400120589E07400120589397500DC
:101543001205898E75001205890E7700120589F63A
:101553007800120589E67A00120589F47A001205EB
:10156300894F7B00120589A57B001205892C7F001A
:1015730012058968E3031205897EE303120589AC2A
:10158300C103120589C6C10312058957C203120597
:101593008998C203120589B5C203120589DBC20308
:1015A30012058914C3031205894BC30312058981EC
:1015B300C40312058920D2031205894FD2031205F1
:1015C30089A0D203120589BBD20312058900D30374
:1015D3001205892BD303120589D0D303120589DEA3
:1015E300D303120589F8D30312058915CC0212051A
:1015F3008967CC0212058975CC021205894FCD0289
:10160300120589E1CD0212058930CE021205898CBB
:10161300CE021205898FCE021205890DCF02120563
:101623008925CF021205891DD102120589ADD10288
:10163300120589E8D102120589BBD302120589D6A6
:10164300D30212058923D4021205895FD40212053D
:1016530089BBD402120589D0D402120589E2D402CF
:1016630012058965D50212058904D702120589423C
:10167300D70212058987D70212058997D702120567
:1016830089F3D702120589CDD802120589F8D80249
:101693001205891FD90212058922D902120589A9C7
:1016A300D902120589D8D902120589F7D902120580
:1016B3008961DA0212058990DA02120589B2E1031F
:1016C300120589C3E1031205890DE2031205896638
:1016D3008903120589B98903120589BC8A03120596
:1016E30089F28A03120589ED8C03120589338D0370
:1016F300120589938D03120589FD8D031205893A1D
:101703008F03120589C89003120589EA9003120515
:1017130089409103120589D4910312058971B70297
:1017230012058991B702120589AEB702120589C065
:10173300B80212058939B902120589A1B902120545
:101743008948BA02120589EFBA02120589BEBB02A3
:1017530012058975BC02120589B9BC021205894BB1
:10176300C20212058959C40212058999C4021205DD
:101773008917C5021205891AC5021205890EC60208
:1017830012058953C702120589ECC702120589C2E3
:10179300C80212058902CA02120589A1CA021205EA
:1017A30089EECA0212058955CB02120589CEA00221
:1017B300120589A4A10212058929A20212058972C0
:1017C300A2021205891DA30212058983A302120531
:1017D3008992A402120589EFA40212058980A50249
:1017E300120589F0A5021205898EA602120589C782
:1017F300A90212058925AB02120589AFAB021205B6
:1018030089CEAD021205898BAE0212058935AF026E
:101813001205899EAF0212058936B002120589BBF3
:10182300B102120589C2B20212058955B40212052A
:1018330089F6B4021205890DB6021205898EE303F7
:101843001205899CE303120589AAE3031205899B08
:10185300C403120589FEC40312058966C503120574
:1018630089C2C50312058924C603120589AFC603BD
:10187300120589D6BB0312058934BC03120589DD21
:10188300BD0312058989BE03120589E4DB03120532
:101893008929DC03120589DDDC03120589FBD303E7
:1018A30012058909D403120589CDE303120589655D
:1018B300E00312058975E00312058998E003120518
:1018C3008900E1031205891BDD0312058942DD034B
:1018D300120589CBDD0312058936DE03120589DD86
:1018E3009E031205897AD703120589A0D70312052F
:1018F300890CD8031205892CD80312058972D803E1
:10190300120589E1D8031205890BAC031205892E50
:10191300AC0312058952AC031205896FAC0312059F
:1019230089A5AC03120589C5AC0312058900AD0373
:101933001205895EAD03120589B2AD03120589C88C
:10194300AD03120589D6AD03120589E4AD03120573
:101953008927AE0312058943AE03120589D1AE036D
:10196300120589009F03120589179F0312058995A4
:101973009F03120589C4A00312058997A3031205C7
:1019830089179D03120589539D031205897C9D03C5
:10199300120589FE9D03120589659E03120589DEE2
:1019A300F90112058928FA01120589ACFA01120519
:1019B3008962FB01120589E1FB011205892CFD01F6
:1019C300120589A7FE011205890AFF01120589572D
:1019D300FF0112058965FF0112058978FF011205D0
:1019E300898FFF01120589A6FF01120589B4FF0142
:1019F300120589B89703120589149803120589EF14
:101A03009803120589279903120589519903120531
:101A1300896A99031205898899031205892E9A0305
:101A2300120589029B03120589A29B0312058945AE
:101A33009C03120589919C03120589D49C0312050A
:101A430089C0C90312058905CA0312058916CA0389
:101A53001205895FCA031205899ACA03120589D53B
:101A6300CA0312058953CB0312058983CB031205DD
:101A73008988FC02120589C4FC0212058911FD0242
:101A83001205893CFD0212058983FD02120589B8FE
:101A9300FD02120589F0FD021205891DFE021205E1
:101AA3008943FE02120589A0FE02120589C8FE02BF
:101AB30012058950FF0212058968FF021205897D0C
:101AC300FF021205897D7F00120589CC7F00120574
:101AD30089F9AF03120589F6B00312058903B1032F
:101AE30012058914B1031205892DB10312058992D8
:101AF300B103120589F5B10312058991B2031205E9
:101B0300891CB30312058976B3031205898AB303CB
:101B13001205899DB3031205890EE1031205893667
:101B2300E10312058962E1031205898AE1031205C3
:101B33008937C70312058956C70312058967C70387
:101B430012058975C7031205899FC703120589B456
:101B5300C703120589C9C703120589E1C703120523
:101B63008916C80312058955C8031205898AC80353
:101B7300120589DDC8031205892BC9031205894B98
:101B8300C90312058959C9031205896EC9031205D0
:101B930089B2C903120589AFFF02120589008003C8
:101BA3001205893980031205896280031205897938
:101BB30080031205899880031205890181031205A8
:101BC300893981031205893B8503120589918603AF
:101BD300120589C8860312058922870312058928FD
:101BE30088031205895488031205896D8803120539
:101BF30089818803120589C788031205892389030C
:101C030012058937890312058916D9031205892A12
:101C1300D90312058951D90312058975D903120510
:101C230089A0D903120589CDD903120589EDD903FA
:101C330012058923DA0312058947DA03120589CAD3
:101C4300E203120589BCB303120589D0B30312055D
:101C530089FDB40312058931B50312058958B5030B
:101C630012058980B50312058999B503120589D533
:101C7300B50312058948B60312058988B603120510
:101C830089D5B60312058906B70312058929B70357
:101C9300120589FFCB031205893BCC03120589404A
:101CA300CD0312058966DF03120589C0DF03120520
:101CB3008900E00312058943E003120589F6A303B3
:101CC30012058917A40312058968A40312058986DE
:101CD300A403120589B0A403120589D0A403120535
:101CE30089F0A40312058910A50312058912A6031E
:101CF30012058965A60312058975A60312058930A5
:101D0300A7031205893EA7031205894CA7031205F1
:101D1300895AA7031205896AA70312058901A80333
:101D2300120589FDAB03120589CBFF011205890A50
:101D3300E30312058940E303120589AFE3031205A8
:101D430089E88101120589BA8101120589A88101F7
:101D530012058999A0021205897BA002120589A4A4
:101D63009F02120589099F02120589D09D0212055F
:101D730089889B021205890C9B02120589BA970276
:101D83001205898697021205893F97021205891465
:101D930097021205896596021205891896021205A3
:101DA300898594021205898294021205899D930202
:101DB300120589699302120589A4920212058937D3
:101DC3008401120589108401120589F58301120526
:101DD30089D49002120589879002120589589002CE
:101DE30012058955900212058972830112058948EB
:101DF30090021205891290021205890490021205BD
:101E030089DD8E021205894AE502120589D3820112
:101E13001205895D8E02120589238E02120589C778
:101E23008D021205899D8D02120589BF8A02120552
:101E330089B38A02120589138A021205894A890223
:101E4300120589918602120589BC83021205897DD8
:101E530083021205891C8202120589CF81021205B1
:101E6300890A81021205896780021205893A800274
:101E730012058900800212058931DB02000000800F
:101E8300FBC2C732E4730000000000000000002F13
:101E9300000000000700070000147F147F140024D3
:101EA3002A7F2A1200626408132300364955225000
:101EB30000000503000000001C2241000000412235
:101EC3001C000014083E08140008083E080800001F
:101ED30000A0600000080808080800006060000017
:101EE300002010080402003E5149453E0000427F95
:101EF3004000004261514946002141454B310018E1
:101F030014127F10002745454539003C4A494930A2
:101F1300000171090503003649494936000649495C
:101F2300291E000036360000000056360000000867
:101F33001422410000141414141400004122140844
:101F430000020151090600324959513E007C121129
:101F5300127C007F49494936003E41414122007FBE
:101F63004141221C007F49494941007F0909090178
:101F7300003E4149497A007F0808087F0000417FFD
:101F83004100002040413F01007F08142241007FAF
:101F930040404040007F020C027F007F0408107F16
:101FA300003E4141413E007F09090906003E41517F
:101FB300215E007F0919294600464949493100013C
:101FC300017F0101003F4040403F001F2040201F90
:101FD300003F4038403F0063140814630007087053
:101FE300080700615149454300007F414100005506
:101FF3002A552A55000041417F00000402010204D2
:1020030000404040404000000102040000205454BE
:102013005478007F4844443800384444442000380E
:102023004444487F00385454541800087E09010280
:102033000018A4A4A47C007F080404780000447D55
:102043004000004080847D00007F10284400000091
:10205300417F4000007C04180478007C0804047865
:1020630000384444443800FC242424180018242451
:1020730018FC007C0804040800485454542000044D
:102083003F444020003C4040207C001C2040201C5A
:10209300003C4030403C004428102844001CA0A0D1
:1020A300A07C004464544C440000FFFF0000081C63
:1020B3002A0808080808082A1C080402FF0204006A
:1020C300002040FF402000013636010100010201DB
:1020D30000010301000104010606050200000701D7
:1020E30000340801000F090401010D0100FF0E086F
:1020F300000017020000190100FF1A0100011B0173
:1021030000FE1C0100081D0200001F010001200148
:102113000001210200002301000F24020000260118
:10212300000127010008280200FF2A0100072B01F4
:1021330002402C0100002D0100012E0100012F019E
:1021430000FF30010B1C310800003A0100083B017D
:10215300000F0101710101010101110101013101AF
:10216300010101018001100161013B0014006301C1
:1021730073017201620143010001130106013D0174
:1021830035000401120100010001000100010401F6
:102193000401330133013C014401320136000001E3
:1021A3000001650100013500810100010501820183
:1021B3008301000103007100300160001100700011
:1021C300310220035004800010006100000014005D
:1021D30063007300720062004300000013000600F6
:1021E30000000000040012000000000000000000D6
:1021F30004000400370037003C02440000000000E4
:1022030000000000650000003500810000000500AB
:10221300000083000000030471040204600411043D
:1022230070040204020401040204100461040004A3
:102233001404630473047204620443040004130467
:10224300060400040004040412040004000400044F
:102253000004510464000004000400044404000466
:1022630000040004000465040004350481046400D0
:1022730005040004830400040302710230016002B8
:1022830011027002010202020202800210026102C4
:102293003A004100630273027202620243020002C7
:1022A30013023800000200020402120200020002BC
:1022B3000002000204020402370037003C02440219
:1022C30000023900000200026502000235028102A9
:1022D300000205028202830200020103710301036B
:1022E300010301030103010322030203010310039A
:1022F3000003000300030003000300030003420381
:10230300000324030603000300030403120325034D
:10231300230325032303040304030003000300032F
:102323004403000300032303000365032100350373
:1023330081030003050300030003000336000100CB
:10234300060000000F000000000000000000000075
:10235300000003FFFF00000403FFFF0000FFFF0F67
:10236300F4010005C4040320000100000B00000079
:10237300000000000003010F0000E917130083179A
:102383000100E91702003B17030041170400471738
:1023930005004D17060059171100771714007D1714
:1023A30015006B17FFFF000001570D06810D087B19
:1023B3000D0B930D10D90C025D0D056F0D07630D09
:1023C3000C450D0D510DFF00000300030004000830
:1023D3000010001F003E007B00F600EC01D703AFA6
:1023E300075D0FB91E713D0000D5100511DB10E12B
:1023F30010FF10F310ED100B11111117112311E73A
:1024030010CF10C910D5C5C5B5A5A595858575751A
:102413006565555545453535252515059C36063ADB
:10242300703DD9404344AD47174B814EEA510016E6
:102433000F00000B150B020002220F32000006569C
:102443007777777777777777777777777777770090
:102453000102030405060708090A0B0C0D0E0FC53C
:1024630011D711DD119F10E3119910A5103D125BD7
:1024730012611243124F124912D90FD30F0F1015C5
:10248300100910C10F303016181920231A1C1E30E2
:102493000C0E020B040B0A0708000F00383C3E36F3
:1024A3003B3B352B432C0001191618161615230335
:1024B3000000034948424D1817250502303017180C
:1024C3001921301B1D1F30F9101D11551229112F11
:1024D300113112E911EF11FB11F511E50FEB0FDFCC
:1024E3000F1B100005150D09100804000000000063
:1024F30000F10F031000BE040A150004000E0003D0
:10250300090F08010900000C0408052808C082C04F
:1025130083E99003CDF0E4900382F0121C939003BF
:10252300E0E4F0A3F09003CEF0A3F0120F31120A0F
:102533009F120C3D121C99900342E4F0A3F0900308
:10254300F0E07002A3E060099003F0125769121ED5
:1025530087902504E493FA7902121CFF025347740F
:10256300F212036BEAFEEBFF74805FF9E47001E99A
:1025730060679003CDE0F91214778A088B09EA703B
:1025830001EB604C7C0080010CEC75F003A4A9F016
:1025930024ABF582E93423F583E49364FF602AE4F2
:1025A30093FA8508828B83E06A70DDAA08EC75F0E4
:1025B30003A424ACF582E93423F583E493C0E074E7
:1025C3000193F583D082121E87AA08AB0912146BFC
:1025D300EEFA74806FFB022730EE5420700302265C
:1025E300B4750A007C027D007A201227447C0079AE
:1025F300047A007B00120DDB8A088B0980187401B2
:10260300850882850983A3A3A3A3A3A3A3A3A3F0FC
:10261300850C08850D09E5087002E509606E7C00EC
:102623007904AA08AB09120DDB8A0C8B0D750A011C
:10263300E508240412674C24FFF0A3E034FF12459D
:10264300917002A3E070C9850882850983A3A3A3BF
:10265300A3A3A3A3A3A3A3E0640170A28508828517
:102663000983A3A3A3A3A3A3E054047091740685D1
:102673000882850983A3A3A3A3A3A3A3A3A3F07A97
:10268300B78508828509831227E18084120DAB7C0C
:102693000079017A007B00120DDBEA7001EB70090F
:1026A300E50A70057A2012273374206EFAEF0225AB
:1026B300D8EE54106007120C6D741080EEEE544087
:1026C3006007120CC1744080E2EE54806007120B65
:1026D3008F748080D674015FF9E47001E9601A9009
:1026E30003F2E07002A3E060099003F2125769124B
:1026F3001E87EEFA74010225D774025FF9E47001B4
:10270300E9600A120F2BEEFA74020225D774045FF4
:10271300F9E47001E96012125AD312594379011294
:1027230036ECEEFA74040225D77A007B00022924E2
:102733007B009003CDE0F912159D22EAFCEBFD7AB4
:10274300017B009003CDE0F91215972274F4120374
:102753006BEAFEEBFF7508018E828F83A3A3A3A30D
:10276300A3A3E054406005122BED801590036DE0A8
:10277300A2E1500A7900122BED120C498003120ECC
:102783005374FE6A700374FF6B602C125765125FFB
:10279300A7120ED1E98E828F8360061227DAE480B6
:1027A300051227DA7401124205FAA3E0FB121CF9A1
:1027B300E9F509700580127509CDAA098E828F8308
:1027C3001227E1E96003750800A908EEFAEFFB128E
:1027D3000DB7A909024639E0240D12331522E0246E
:1027E3000C12640BF9120D392274F612036BE9FE15
:1027F300EAFF7A0F7B00121465EA7001EB6019742B
:102803000C8A828B83F0EEA3A3F0EF8A828B83A3DF
:10281300F012595C79008002791002576074F21249
:10282300036BEAFEEBFF8C088D09890A740E120A0A
:1028330071E0F50CA3E0F50D850C82F583E4F0A3BC
:10284300125D98E0F9120EB3E96020122935701B6E
:102853008E828F83A3A3A3A3A3A3A3A3A312630F14
:10286300850C82850D831259438003750A00EE247B
:102873001D12292912062901091B299228AC28B502
:1028830028BE281B29DF281B29F2280B29142978A5
:102893000C120817AC08AD09EEFAEFFB120C5574D5
:1028A3000212082AE9F50A806FEEFAEFFB120C5BBD
:1028B3008066EEFAEFFB120EE980E9EE2417122B85
:1028C300D764027053E50A700A1266737003A3E0BB
:1028D300697045EEFAEFFB120EA1803CEE2417124D
:1028E3002BD764027032EEFAEFFB120E8980299027
:1028F30003F4E07002A3E0601FEEFAEFFB9003F431
:10290300125769121E878010EEFAEFFB120EF58044
:1029130007EEFAEFFB120F01A90A800574031208F0
:102923002A7F060205EB12457C12293022125DAA8A
:10293300E0228E828F83A3A3A3A3A3A3A3A3A312A3
:102943002C7C64022274F412036B74DE12088E8AE8
:10295300088B098A828B83A3A3E0F912463E700198
:10296300EF7003022A57850882850983A3E064F187
:102973006033850882850983A3E064CD60278508D9
:1029830082850983A3E0641A601B85088285098315
:10299300A3E064E9600F850882850983A3E064E10D
:1029A3006003022AE48E828F83A3A3A3A3A3A3A31A
:1029B300E05408F9E47001E97003022A5F74058E9C
:1029C300828F83A3A3A3A3A3A3A3A3A3F09003F83A
:1029D300E07002A3E060099003F8125769121E87A2
:1029E3009003FAE07002A3E0603B90036DE0A2E184
:1029F30050338E828F831247B6A3A3A3A3A3A3A3AB
:102A0300124CF788828983125E33120F55EA7001E4
:102A1300EB6012850882850983A3E0F99003FA121B
:102A23005769121E878E828F83A3A3A3A3A3A3A395
:102A3300A3A3E06402701074068E828F83A3A3A302
:102A4300A3A3A3A3A3A3F0850882850983A3A3E07B
:102A5300F9120DBD120DAB74220246367900120D28
:102A6300B7E9607D90036DE0A2E1506212640070EB
:102A730002A3E060598E828F83125E337403120ABD
:102A830071126410850882850983A3E064E9701BD1
:102A9300122BDE12081B850882850983A3E0F50A41
:102AA300780A12081B1242B912082A740C120A710E
:102AB300123BAD12329B1259437900740E120A7104
:102AC300124CF7740C120A71125E33120C4F8E8281
:102AD3008F83A3A3A3A3A3A3E04420F0A3E002292D
:102AE300CF850882850983A3E0C0E07402120A71CE
:102AF300D0E01251911265A9EE240B122BD7851049
:102B030082851183AA82AB837005120BC5800312E1
:102B13000EAD850882850983A3E064F160538508BF
:102B230082850983A3E064CD604785088285098394
:102B3300A3E0641A603B850882850983A3E064E10E
:102B4300602F850882850983A3E064F06023740203
:102B5300120A71E064B76019122BDE12081B7403AA
:102B6300120A71E0F50A780A12081B1242B9120818
:102B73002A90036DE0A2E14003022A288E828F830C
:102B8300A3A3A3A3A3A3A3A3A3E06402702A8E8297
:102B93008F83A3A3A3A3A3A3E05404601B122BED71
:102BA300120ED1E9700D12576574FFF0A3F074058E
:102BB300022A3C7403022A3C850882850983A3E028
:102BC30064E96003022A28EEFAEFFB120F07022AD8
:102BD30028EE2411F582EF124A98228E828F83E029
:102BE300F8125E22750A01780A228E828F831229D7
:102BF30030FAA3E0FB2274F712036BEAFEEBFF75D6
:102C0300080012293570037508011266737003A357
:102C1300E0697006E508D2E1F508E50860158E82E3
:102C23008F83A3A3E07006E508D2E58004E508D20C
:102C3300E6F508122C6B64017006E508D2E0F5088E
:102C43008E828F83A3A3E06010EE241D124D0364D4
:102C5300016006E508C2E0F508E508A2E14004D2F8
:102C6300E7F508A908024A708E828F83A3A3A3A362
:102C7300A3A3A3A3A3122C7C22E0FAA3E0FB120ECE
:102C8300D1E92274F012036B74D212088E8510827C
:102C9300851183125FA77408120A71125A48740AC5
:102CA300120A71E4F0A3F0740C120A71AC82AD83C2
:102CB3008510828511831232F1851082851183126A
:102CC30032BA120E2F851082851183125E37F8A354
:102CD300E0F97419120A71125943740C120A71AA99
:102CE30082AB83120D4B7402120A71E9F074121253
:102CF3000A71E060267423120A71E0FD740D120A52
:102D030071E0FC851082851183E0F81232BA7901F3
:102D1300121D59E9600302328F801390036AE06049
:102D23000D7402120A71E0A2E1400302328F851092
:102D330082851183E0242C12456BF8A3E0F99003FC
:102D430080E0687003A3E0697035750800780812A5
:102D5300081B780812081B7402120A71123305F952
:102D63007402120A71E0242A1232C17402120A7127
:102D7300E02412FAA3E03400FB1242D412082A74AE
:102D83000F120A71E0FA900370E06A600302328F57
:102D93007412120A71E07003022E7F85108285116E
:102DA30083E0242A12456BFCA3E0FD1232DEFAA372
:102DB300E0FB120F557406120A71125FA774061214
:102DC3000A71E07002A3E07003022E74740D120AFC
:102DD30071E0F885108285118312329BA3A3E0284A
:102DE300F8A3E03400F9740D28F582E439F583E0A3
:102DF300FA7406120A711232B6E06A601E74061281
:102E03000A71A31237A0EAF09081947808120A4A53
:102E13007406120A711232EB120A3B7904740D1212
:102E23000A71E0FA1232A4E02AFCA3E034008C8297
:102E3300F583A3AA82AB831214538A088B098C0AE5
:102E43008D0B7406120A711232B6A3780C120A4A59
:102E5300780C79081209FC500302328F9081907824
:102E6300081209207406120A711232EB120A3B800F
:102E73000B9003C7E06401700302328F90036DE08F
:102E8300A2E15003022F41900382E064046008E052
:102E93006409600302328F7402120A71E0A2E550E2
:102EA300471232FFC0E07403120A71D0E012332DCF
:102EB300C0E07404120A71D0E0123324C0E0740538
:102EC300120A71D0E012330C1206937407120A71BE
:102ED300AC82AD837410120A71AA82AB83120BCB3E
:102EE300740412082A02328FA2E6400302328F745E
:102EF30029120A71125E3E701C7423120A71E06477
:102F030002600302328F740C120A71AA82AB83121D
:102F13000EA102328F7429120A71123294600302D5
:102F2300328F7423120A71E06404600302328F74D7
:102F33000C120A71AA82AB83120E9502328F741D92
:102F4300120A71E0602E851082851183E02402123B
:102F5300456BFAA3E0F5838A82A3A3A3A3A3A3E00B
:102F630014125AEBA3A3A3E0C0E0741D120A71D09C
:102F7300E0F070097402120A71E0C2E7F090038274
:102F8300E064046005E0640970507415120A71125C
:102F930066807003A3E06960197415120A7112291F
:102FA30042600F7411120A71E0540364016003025A
:102FB300328F740E120A71E07003022EA474291268
:102FC3000A71125E3E7003022EFC7429120A7112FA
:102FD3003294600302328F022F257E007402120A9C
:102FE30071E0546170030230E6E0A2E0506E1232E9
:102FF300DEFCA3E0FD740C120A71AA82AB83120CEF
:10300300C7E9704F120E5FE9FE7402120A71E0A263
:10301300E75049851082851183E024121232C1746E
:103023000C120A71AA82AB83120CCDE960187415D5
:10303300120A71126734120A71123EDF120A717496
:1030430004F0A3E480157402120A71E0C2E5F07E75
:103053000080097402120A71E0549FF07402120A8C
:1030630071E0A2E550441232FFC0E07403120A710A
:10307300D0E012332DC0E07404120A71D0E0123391
:1030830024C0E07405120A71D0E012330C120693C7
:103093007407120A71AC82AD837410120A71AA828A
:1030A300AB83120BCB740412082A7402120A71E068
:1030B300A2E640030231C07408120A7185820885B2
:1030C30083097808120817EEF97402120A71123292
:1030D300F6120A71AA82AB83120D3F740212082AF8
:1030E3000231BE740E120A71E06401703874291241
:1030F3000A7112292C6405702C7408120A718582D6
:1031030008858309780812081779007402120A7176
:103113001232F6120A71AA82AB83120D3F740212A5
:10312300082A02328F741D120A71E0701879007434
:1031330015120A71124CF77417120A71125E3312C8
:103143000C6702328F120DB1E9600302328F7415DE
:10315300120A71126734120A711259438E087808E1
:1031630012081B7425120A71AC82AD837416120AFD
:1031730071125E337411120A71E0F9120D097401B0
:1031830012082AE96016740A120A717420F0A3E483
:103193001251881232AF12292C543FF07900741760
:1031A300120A71124CF77415120A71124CFB600863
:1031B300740A120A71125BED120E5FE9FE740812B3
:1031C3000A71E064FE7004A3E064FF70027E007481
:1031D30002120A71E0A2E7400302328FEE7003028B
:1031E300328F8510828511831232D5125096700169
:1031F300EB700302328F1232A41250CD12081374F3
:1032030003120A711232D5FC7D001241F212082A10
:1032130090036AE070087412120A71E0601A742352
:10322300120A71E0FD740D120A711250B66009AAF8
:103233000CAB0D1214EF8054740E120A71E0C0E04F
:10324300742B120A71D0E0F0742C120A71E4F0A30B
:10325300F0742B120A718582088583097808120895
:1032630017740C120A71120697EEF5087808120803
:103273001B7405120A711232F1740D120A7112577E
:1032830011120E1D740512082AE970A3742E024F41
:1032930023125DACE0640722E0FAA3E0F5838A829F
:1032A30022851082851183E01232AF22F8125DACC1
:1032B300A3A322125AF6221232B01254B0221232AF
:1032C300C522FAA3E03400FB8A828B83E0FCA3E0EF
:1032D300FD221232D922124F35E022851082851148
:1032E30083E0241212640B22124F31780822123227
:1032F300D9F922E024121232C5740E228510828578
:103303001183E0242E12640B2212518C24241233D5
:10331300152212331922F8A3E03400F98882898335
:103323002212518C243012640B2212518C242F123E
:10333300640B2274F012036B74EA12088E8A0E8BEC
:103343000FEA2402F50AEB3400F50B0A0AFB120A12
:10335300C38A088B09AE08AF09750901850E8285FA
:103363000F83A3E0F50C750801AC0AAD0B85108241
:10337300851183AA82AB83121CB77408120A7112D7
:103383005A48740A120A717402F07413120A71E42F
:10339300F090191BE07010EE7001EF700AE50C70ED
:1033A300067509C302353D900382E0640860067523
:1033B30009C2023539850E82850F83A3A3A3A3A374
:1033C300A3A3A3A3A3E0A2E1500EA2E350057508B3
:1033D30004800C7508038007A2E35003750802EE0E
:1033E3007001EF607E8E828F83A3A3A3A3E06404A6
:1033F300600D8E828F83A3A3A3A3E06403700C7478
:10340300046508602C7403650860268E828F83A38D
:10341300A3A3A3E06402600D8E828F83A3A3A3A35F
:10342300E064017024740265086006740165087025
:103433000B126730120A7112594380278E828F83D1
:10344300A3A3A3A3E06402600D8E828F83A3A3A32F
:10345300A3E064017006125F5F121E871235FC7EC3
:10346300007F007408120A71E064FE7004A3E06434
:10347300FF703CE50C60179003BFE06402700F908F
:103483001922126734120A71E8F0A3E98020850E2D
:1034930082850F83A3A3A3A3A3A3A3A3A3A3E054FE
:1034A30002F9120C737408120A71EAF0A3EBF074B8
:1034B30008120A71E064FE7004A3E064FF700575EE
:1034C30009C78072E50CF50A780A12081B850E827B
:1034D300850F83A3A3A3A3A3A3A3A3A3A3E0F91289
:1034E30035F17409120A71125E33120BE37401127F
:1034F300082AE97041A9081235F17408120A7112F9
:1035030036E58A0A8B0BAE0AAF0BEE7001EF601E35
:103513007402650C700D8E828F83A3A3A3A3A3E013
:10352300D2E3F0740A120A71E4F0F5098008740812
:10353300120A71125A48E50C700F851082851183A7
:10354300AA82AB83121CDB8010FCA908851082853C
:103553001183AA82AB83120E8FE9FAEE7001EF603A
:1035630053E50C60208E828F83A3A3A3A3A3E0D291
:10357300E6F07402650C700D8E828F83A3A3A3A360
:10358300A3E0D2E5F0850E82850F83A3A3A3A3A3B3
:10359300A3A3A3A3A3E0A2E6500D8E828F83A3A3CC
:1035A300A3A3A3E0D2E7F08E828F83A3A3A3A3A355
:1035B300A3E004F0E5097003EA602EFC7D007A01C4
:1035C3007B10121C9FEE7001EF60031235FC740830
:1035D300120A71E064FE7004A3E064FF600B7408D8
:1035E300120A71125F63121E877416024F23E50ECF
:1035F3002402FCE50F3400FD22E50E2402FAE50F58
:103603003400FB120ACF2274F712036B74F712080B
:103613008EEAFEEBFF900382E06403600DE0640139
:103623006008E0640960030236E08E828F83A3E0C2
:1036330060030236BC7C007D007A027B00121C9F73
:10364300EE2402FAEF125A2412630F9003731259F5
:10365300437953121CCF79001236EC900382E06455
:10366300096009900380125E33120F4F74011257E1
:10367300877404900382F07401120A71AA82AB83E7
:10368300794A121CC97401120A71AC82AD837A782B
:103693007B03121CB779007401120A71AC82AD83EB
:1036A3009003761236E590036DE0A2E35004D2F066
:1036B3008002C2F012576D80218E828F83A3AE8267
:1036C300AF83FC7D007A037B10121C9F8E828F8355
:1036D300E0F91236ECE4900382F0120D8D740902C6
:1036E3004A6D1254B0120AB1229003801254B012E0
:1036F3000BDD22C082C083900342E07002A3E0701E
:1037030041900382E0120749000301183705273768
:10371300063637453790034AE07002A3E0607B909A
:10372300034A8070900346E07002A3E0606C90034C
:10373300468061900348E07002A3E0605D90034817
:103743008052900342E07002A3E06005123BB9701F
:103753002379009003CE800909EA12619CEB124C95
:10376300E41248587001EB70EF9003CE125E3312EF
:103773000BD180269003431237A0A3A3A3E06402D6
:103783007005120F1F80139003F6E07002A3E06030
:10379300099003F6125769121E87025347125AF90A
:1037A3002274F412036B74FB12088E8A088B0912BD
:1037B300389B7001EF700302389674028E828F83F8
:1037C300125FB27950121CC9850882850983A3E070
:1037D3006003023884900380E064FF7004A3E06414
:1037E300FF6031900380E064FE7004A3E064FF6037
:1037F300231238B2E0687003A3E069601774EA85A6
:103803000882850983A3123D997A807B037950123C
:103813001CCF806D1238B21259437A737B037953EC
:10382300121CC990037312593A7A767B03794B12AF
:103833001CC97A757B0379E1121CC9900387E0C325
:10384300940F5022900375E0C0E07402120A71D005
:10385300E0F07404120A717401F07402120A71AA7E
:1038630082AB83121CF3750A00780A12081B780ACC
:1038730012081B9019B5E0F91242AF1242D8120890
:103883002A8508828509831238ACF0740390038279
:1038930012595374050246367A0F7B001214658A57
:1038A3000A8B0BAE0AAF0BEE22A3124118A322859B
:1038B3001082851183124DC69003802274F2120385
:1038C3006B74ED12088EEAFEEBFF8E828F83A312D8
:1038D3003B9D851082851183AC82AD838E828F835D
:1038E300A3A3A3A3A3A3A3124561125E2C120D9F4E
:1038F300851082851183E0706A8E828F83A3A3A3D0
:10390300A3A3A3A3A3E0C3940B405885088285090E
:1039130083A3A3A3A3A3A3A3A3E06402704590037B
:1039230082E064026042E06406603D900342E0701E
:1039330002A3E06005123BB9605E900382E0640875
:103943006005E06404701C7402120A71E0F97407E4
:10395300120A71AC82AD83850882850983125E2ABF
:10396300120DA57413022921900342E07002A3E013
:103973007026750A00780A12081B780A12081B12AF
:103983003B8B124CE4123BC2FCA3E0FD850882850D
:1039930009831242D812082A9003CE124F4990038A
:1039A300CEE0F50AA3E0F50B80378E828F83E0F833
:1039B300A3123BC2687003A3E06970198E828F83E0
:1039C300A3A3E0FAE508240DF582E509122BDA6AD0
:1039D3007003023A588E0A8F0BEE12619CEF124F5E
:1039E30046EE7001EF70C37A187B001214E98A0C5B
:1039F3008B0DAE0CAF0DEE7001EF700302396690C4
:103A030003CEE07002A3E070059003CE800AE50ABE
:103A130012619CE50B124CE41265A98E828F83120E
:103A23005A3FEE240C124CE174FFF0E48E828F8334
:103A3300A3A3A3A3A31247C0A3A3A3123BD5E4F05C
:103A4300A3F0E508240B12674C123B81124591C485
:103A5300123B81A3F07401120A71123BA7A3F07405
:103A630002120A71123BA7F0E508240DF582E5095D
:103A7300124CE41238ADA3125949A3A3A3123BADD0
:103A83001259437402120A71E0640160117407123F
:103A93000A71AC82AD83EE240D123B9480117C0835
:103AA3007D0079FFEE240DFAEF3400FB12144D7400
:103AB30012120A71E0C0E0EE2415124CE1D0E0F0DE
:103AC3009019B5E0C0E0123B8B122BDAFAD0E0C3B9
:103AD3009A4003023966126242E509124CE4A3E0FC
:103AE3005480F9E47001E97009901120E070030239
:103AF30039667404120A7112410AA3A3700EE070AE
:103B03004E7406120A71E07006023966E06015749D
:103B130005120A71E0C0E0EE240C122BD7FAD0E0B4
:103B2300C39A502B85088285098312675F12594116
:103B3300123B8B122BDAC0E0124CDED0E0F074059E
:103B4300120A71E0C0E0EE240C124CE1D0E0F074F4
:103B530006120A71E0600D74018E828F83A3A3A302
:103B6300A3A3A3F07404120A71E07003023966740C
:103B7300018E828F83A3A3A3A3A3F0023966540FFC
:103B83008E828F83A3A3A322E5082410F582E5097F
:103B930022FAEF3400FB121CB722A3A3E0F508A31B
:103BA300E0F5092212410E02470A123BB122E0F866
:103BB300A3E0F9025FD49003421242A8640122E019
:103BC300F9850882850983A3A3A3A3A3A3A3A3A31E
:103BD300E022A3F0EE241612457C2274F412036B48
:103BE30074C912088E900382E06408606D90039399
:103BF300E0F824A9F582E43419F583E0F50890038D
:103C030064F0E824AFF582E43419F583E0F5099014
:103C13000362F0750AFF750BFFE508780A1209B80D
:103C2300E50AF4F8E50BF4F93395E0FA90038BE831
:103C3300FCE9FDEAFE123D8E750AFF750BFFE509EF
:103C4300C39508780A1209B8E50AF4FCE50BF4FDFC
:103C53003395E0FE90038F123D8EE412577B790477
:103C6300121CCF900393E07009741E120A71740141
:103C73008006741E120A71E4F0740F851082851198
:103C830083F0901920125FB27946121CCF7401128F
:103C93000A71E4F0901996E0C0E07402120A71D040
:103CA300E0F0900370E0C0E07403120A71D0E0F01A
:103CB3007404120A71E4F07405120A71E4F07407D3
:103CC300120A71E4F0900393E0C3940F500CE0C028
:103CD300E07406120A71D0E080077406120A717448
:103CE3000FF07C947D037408120A71AA82AB8312CD
:103CF3001CB77C037D0079FF7410120A71AA82AB92
:103D03008312144D9003CCE0C0E07413120A71D0F7
:103D1300E0125875120A71125864120E7D900387CF
:103D2300E0C0E0741C120A71D0E0F0900388E0C098
:103D3300E0741D120A71D0E0F0900375E0C0E074E6
:103D43001A120A71D0E0F090038012630F741812F4
:103D53000A711259437420120A71E4F090038AE045
:103D6300C0E0741F120A71D0E0F07434120A71E4D7
:103D7300F07429120A71E4123D997414120A71AA9B
:103D830082AB83121CED7437024636ECF0A3EDF0E0
:103D9300A3EEF0A3F022F07A737B037953123DA4D0
:103DA30022121CCF7A767B03794B121CCF22C0825E
:103DB300C0838A828B83A3E06007E4900382F08050
:103DC3004A7408900382F0900393E0701F90034CB1
:103DD300E07002A3E0600B790090034C1257691264
:103DE3001E87900380124CF77A05801A7900120B14
:103DF300D7900373124CF77A067B00121C9F900333
:103E030076124CF77A047B00121C9F02534774F41A
:103E130012036B74EA12088E8A088B09EA24020AD9
:103E23000AEB3400FB120AC38A0A8B0BAE0AAF0BF0
:103E3300EE7001EF7003023EDA8E828F83A3A3A399
:103E4300A3E0640160278E828F83A3A3A3A3E0640E
:103E530002601A8E828F83A3A3A3A3E06403600D81
:103E63008E828F83A3A3A3A3E06404706AE508246E
:103E730002FCE5093400FD851082851183AA82AB1B
:103E830083121CB7126730120A71123EDF120A71D5
:103E93007401F07413120A71125FB1121CE18908E4
:103EA300AC087D007A077B00121C9F8E828F83A350
:103EB300A3A3A3A3E0C2E0F074018E828F83A3A324
:103EC300A3A3A3A3A3A3A3F074028E828F83A3A3AC
:103ED300A3A3A3A3A3A3F07416024636E8F0A3E9B1
:103EE300F0740A2274F212036B74F812088E8A0AB1
:103EF3008B0B8C0C8D0D8908851082851183AC8208
:103F0300AD8375838175824E7408120795F509ACEC
:103F13000AAD0B851082851183AA82AB83125FAC35
:103F230070037509019003CE80158E828F83E0653F
:103F33000C7004A3E0650D6023EE2416124CE1120D
:103F43004F49EE7001EF601FE50960DEAC0AAD0B6F
:103F5300EE240DFAEF3400125FAB60DD8E828F83A7
:103F6300A3A3E0650870D2EEFAEFFB7408022921DF
:103F730074F712036B9003CEE0FAA3E0800CEA24FB
:103F830016124F431214EFEEFAEFFBEA7001EB70D7
:103F9300ED9003CEE4F0A3F0024A7074F412036BC5
:103FA3008A088B09EA2413F582EB122BDA64037077
:103FB3000DEA240BFAEB3400FB120AC3800DE06414
:103FC300027075EA126244EB1267588A0A8B0BAED1
:103FD3000AAF0BEE7001EF605F850882850983A34A
:103FE300E0700DE48E828F83A3A3A3A3A3A38047D2
:103FF30064F1600C850882850983A3E064E1701F86
:104003008E828F83A3A3A3A3A3A3E06401701012E2
:104013005F5F121E87E508240BFAE5091236038E4B
:10402300828F83A3A3A3A3A3A3E0600C8E828F83B9
:10403300A3A3A3A3A3A314F002463974F212036B40
:104043008A0C8B0DECFEEDFF890B8A828B83126148
:10405300A18A828B83124112EEF8EFF9A30EAF838C
:104063008A828B83A3A3E0C454F0FA88828983E015
:104073004A12412112411812411CE0333354FCFA15
:104083008E828F83E04A12411CA3E033333354F80A
:10409300FA8E828F83E04AF008EFF9A30EAF83858F
:1040A3000C828B83A3A3A3A3A3A3E0A2E0E492E0E7
:1040B30013135480FA88828983E04AF0E50C2407BD
:1040C300F508EB3400F509750A0078081208137C2B
:1040D300081250A212082A126325E50C240FF508D2
:1040E300E50D3400F50978081208137C031250A279
:1040F30012082AE50BC3940F400A1241E3124CE461
:1041030012410AF002292412410E22E0023B83A34A
:10411300124118F022E0025FD4124121A322F0855C
:104123000C828B83A3A3A32274F212036BEAFEEB2C
:10413300FF890B8C0C8D0D8E828F83E08C828D8397
:10414300125453AE82AF83E01252F7124204C412E8
:1041530052F71241F8E054038C828D83124202A27B
:10416300E2E492E08C828D83124201131313541FF5
:104173001252F7124200A2E7E492E08C828D83A3ED
:10418300A3A3A31241F88E088F09750A00780812B9
:1041930008137C087D00E50C24071241EC12082A61
:1041A3001263258E088F0978081208137C037D009B
:1041B300E50C240F1241EC12082AE50BC3940F40BF
:1041C300148E828F83A3A3A3E0C0E01241E3124CB9
:1041D300E4D0E080071241E3124CE4E4F002292426
:1041E300E50C2412F582E50D22FAE50D3400FB12ED
:1041F3001441740322A31254520EAF8322A3A3A328
:10420300A3A3F08E828F83E02274F412036B74F9FC
:1042130012088EEAFEEBFF900342E07002A3E06017
:10422300101242A164027009EEFAEFFB120F19801B
:1042330068900380E06E7003A3E06F705C740169A3
:1042430060097A947B03125FAC704E7A007B029014
:1042530003CDE0F91215A3EA7001EB703C900383E0
:104263007808120A4A8510828511837808120A3B5E
:10427300900389E0C0E07404120A71D0E0F0740581
:10428300120A717401F07406120A717402125FB299
:10429300120B83E96092120B89740702463690036E
:1042A300421242A822124F35A3A3E02290038012A8
:1042B30032CF90037622E508240CF582E509124BF0
:1042C3000F8A828B83A3A3A3A3A3A3A3A3A31232C3
:1042D300CF8A828B831254B0120E65740222E0F9E6
:1042E30002534774F612036B9003DFE0701F7C00E8
:1042F30079017A007B00120DDBEA7001EB600E8A14
:10430300828B83E07002A3E06003120D33025760D7
:10431300C082C0831247A7401079FF120DD5E9FA76
:1043230090250AE493C39A5004790180027900022C
:10433300534774F112036B8A0A8B0B890E750900BC
:104343008A828B83A3A3A3A3A3A3A3A3E0F9120D40
:10435300E18A0C8B0DAE0CAF0D750801EE7001EF09
:10436300600302440B850A82850B83A3A3A3A3A343
:10437300A3124CF7850A82850B83A3A3A3A3A3A34C
:10438300A3A3E0F9850A82850B83125E33120DC95C
:104393008A0C8B0DAE0CAF0DEE7001EF700302456E
:1043A300488E828F83A3A3A3A3E4F0A3F0E50A249A
:1043B3000BFAE50B125A24E0C0E0124CDED0E0F019
:1043C300120EDDEE240C125FA0750901EE2406F82F
:1043D300EF12674F547FF0A3E054FC12459154044D
:1043E300600302448F90198FE0F50A750B00740780
:1043F300780A1209B88E828F83A3A3A3A3A3A3E091
:10440300450AF0A3E0450BF08E828F83A3A3A3A3F9
:10441300A3A3E05480F50AA3E05403F50B740778D3
:104423000A120A2CE50E607774028E828F83A3A38F
:10443300A3A3124200240D12456BA2E2500990037C
:104443006E12455F125941E50A7003024516EE24C8
:1044530006F8EF3400F9E8FAE9FB8A828B83E0542B
:104463007FFCA3E054FCFD74FF250AF50A74FF34B6
:1044730000F50B7407780A1209B8E50A4CF8E50B46
:104483004DF98A828B831259430245168E828F839C
:10449300A3A3A3A3A3A3E04480F0A3E002440AE5FB
:1044A3000A7005750800806B8E828F83A3A3A3A374
:1044B300A3A3E05420601712145F8A0A747F550A7D
:1044C300F8745F288E828F83A3A3A3A380278E8291
:1044D3008F83A3A3A3A3A3A3E05410600E12145FBE
:1044E3008A0A740F550AF8740180D88E828F83A3C9
:1044F300A3A3A37401F0A3E4F074048E828F83A3B7
:10450300A3A3A3A3A3A3A3A31247C57001EB7003A3
:1045130012455274016509702F8E828F83A3A3A362
:10452300A3125FC9F9EEFAEFFB120DCFE96019EEA2
:10453300240C122BD77002A3E0600312456FEEFA2E
:10454300EFFB1214EF750800A9087F070205EB7A49
:10455300207B009003CDE0F912149B22E0F8A3E046
:10456300F98E828F83A3A32212640B22EE240C12F2
:10457300457C12458822EE240FF582EF12458322F3
:104583003400F58322E0FAA3E0FB1214EF22125A5F
:10459300F2E02274F412036B75080012463E7001B8
:1045A300EF70030246328E828F83A3A3A3A3A3A338
:1045B300A3A3A3E064067077120DFF8E828F83A3FB
:1045C300A3A3A3A3A3A3E05408F9E47001E9605CE7
:1045D3008E828F83124A7B7A007B00120DC3EA70AE
:1045E30001EB7048124644121D0B7C007D007A00DB
:1045F3007B0080228E828F83124A757004A3E0644D
:10460300FF60291246441219F9E9641A601E7C00FE
:104613007D00EEFAEFFB120DC38A088B09AE08AFDB
:1046230009EE7001EF70CD7900121D11750801A913
:1046330008800312082A7F040205EB120DE10238F9
:10464300A2900380125FCF1254B02274F712036B4F
:104653008A828B83E5827002E58370099003E08090
:10466300068A828B83A3A31248587001EB602C8ABD
:10467300828B83A3A3A3A3A3A3A3E05408F9E470A9
:1046830001E960DDEC7001ED60158A828B831229EC
:104693002C6C7003A3E06D70C880047A007B000269
:1046A3004A7074F212036B8A088B09890AECFEEDD7
:1046B300FF7A0E7B001214E9EA7001EB603EE48A94
:1046C300828B83A3A3A3A3A3A3A3A3124702E50AF5
:1046D30012602EA3A31265A58A828B83A3A3A3A32F
:1046E300E4F012470212602C1269A9EA240CF58245
:1046F300EB124CEE12602DA3A3F0A3F002292412B7
:1047030067298002A3A3A3A3A3A3A32274F512037F
:104713006BEAFEEBFF890A8C088D09EE7001EF60EE
:10472300597401650A70147901120DD5E9FA9025BF
:104733000FE493C39A500F791180647404650A706F
:10474300331247A740F18E828F83A3A3A3A3A3A30E
:10475300A3A3A3E50A1247C01269A78E828F83A37E
:10476300A3E4F0A3F09003E0E07002A3E09003E081
:10477300601C800A7402650A60CC79C180211247EB
:10478300B6E07002A3E088828983A3A370F0EEF001
:10479300A3EF1247C57001EB700312455279007FF6
:1047A300030205EB7904120DD5E9FA90250DE49384
:1047B300C39A22124DC688828983A3A3221254531B
:1047C300A322F07A207B009003CDE0F91215A3EA2F
:1047D30022C082C083E9FC79009003E0801D8A82B5
:1047E3008B83A3A3A3A3A3A3A3A3A3E06C600574D8
:1047F300FF6C7001098A828B83A3A312485870014E
:10480300EB70DB02534774F712036B8A828B83E5E9
:10481300827002E58370099003E080068A828B83AD
:10482300A3A31248587001EB60248A828B83A3A34D
:10483300A3A3A3A3A3A3A3E06970E1EC60148A82FA
:104843008B83E0240D126254A2E240D080047A00EC
:104853007B00024A701254B0EA22C082C0839003E4
:10486300E080068A828B83A3A31248587001EB6011
:10487300128A828B83A3A3A3A3A3A3A3A3E0697038
:10488300E280047A007B00025347C082C083900316
:10489300E0800688828983A3A31248C67001E96079
:1048A3001B88828983E0FCA3E0F5838C82E06A7035
:1048B30003A3E06B70DDE8FAE9FB80047A007B0078
:1048C300025347124DC6E82274F112036B8A0A8B16
:1048D3000B8C0C8D0D750800750900EA7001EB60F7
:1048E3002E9003E080068E828F83A3A3124F49EE9E
:1048F3007001EF601AAC0CAD0DEEFAEFFB850A8286
:10490300850B83121E87E9640170DB8E088F09AA69
:1049130008AB0902454D790002057C74F712036B5D
:104923009003E012630F7C007D00800DE8FCE9FD3D
:1049330088828983A3A312630FE87001E96030EAD8
:10494300687002EB6970E59003E0125E33E86A7009
:1049530002E96B88828983A3A3700812630F900313
:10496300E0800912630F8C828D83A3A31259430243
:104973004A7074F712036BEAFEEBFFEE7001EF600F
:1049830016120DF9124A817002A3E0600312456FFB
:10499300EEFAEFFB1214EF024A7074F712036B8AFC
:1049A300828B83124A7B9003E012630F7508007EAB
:1049B30000803388828983A3A3A3A3A3A3A3A3A370
:1049C300E0640570180E88828983E0FFA3E0F58315
:1049D3008F82E06C7003A3E06D7002050888828902
:1049E30083A3A312630FE87001E970C7902502E463
:1049F30093FCE508C39C500B902503E493FCEEC3A2
:104A03009C400F8A828B83A3A3A3A37401F0A3E426
:104A1300801290036E12630F8A828B83A3A3A3A3D6
:104A2300E8F0A3E9F074058A828B83A3A3A3A3A36D
:104A3300A3A3126724A3A3A3E0F0A3E04408126096
:104A43002E124A757004A3E064FF60159003801270
:104A53004CF78A828B83125E33121D05E9641A7048
:104A6300057901121D118005741F12082A7F0102A6
:104A730005EB12293064FF221229300232D012646E
:104A8300041245898E828F83124588EE240CF582A9
:104A9300EF124A9822124583E02274F712036B74D3
:104AA300E112088EEA2413F582EB122BDAC0E074CC
:104AB30011120A71D0E0124DBB7409120A71124D22
:104AC300B4124B15FCE9FD8C828D8312630F740BBA
:104AD300120A71124DB42414F582EB122BDAC0E0E2
:104AE3007412120A71D0E0F0EA240E124B088C8281
:104AF3008D83124CF7851082851183AA82AB8312B2
:104B03000CCD024A6BF582EB124B0F22124583E068
:104B1300F9222404F8EB3400F9E82274F412036B4D
:104B230074FC12088EEAFEEBFF120DB1E960057901
:104B330011024CD98E828F83122C766003124CE8BB
:104B4300EE2413122BD77003741EF0122BD46401BE
:104B530070199011EFE0600D90036AE0700D8E8282
:104B63008F83E07006EE2411124CEBEE2414122B0B
:104B7300D7701590035FE0C0E0EE2414124CE1D02F
:104B8300E0F090035FE004F090036DE0A2E1504693
:104B93008E828F83122C76603D8E828F83E0600835
:104BA300EE240B124D03602EEE240F122BD754402C
:104BB3006017EE2413122BD76401700DEE240F122D
:104BC3002BD754FB125BF0800DEEFAEFFB120E0BAA
:104BD300E97003024B328E828F83E064017015EE1D
:104BE300240B1229296402700BEE240F122BD744D5
:104BF30040125BF0EE240F122BD7544070549003F5
:104C03006DE0A2E1504C750800780812081BEE24F1
:104C130006FCEF3400FD8E828F83125E31EE241288
:104C2300F582EF124B0B120D09740112082AE96089
:104C330006124CE8125BEA79008E828F83A3A3A34A
:104C4300A3124CF78E828F83A3A3124CFB60031233
:104C53005BEA851082851183AC82AD83EEFAEFFBAC
:104C6300120E238A088B098E828F83A3A3124CF71B
:104C7300EA7001EB605C8E828F83E0C0E074011206
:104C83000A71D0E0F07402120A711265A97401125C
:104C93000A7185820A85830B780A120817EE240F9E
:104CA300124CE1120697EE240E122BD7F50A780A5E
:104CB30012081B7405120A71E0F9120E1D74051215
:104CC300082AE9FE74106E700BAA08AB091214EFE0
:104CD30080027E10EEF97404024636EE240BF58250
:104CE300EF12457F22EE2412F582EF12457FE4F0A6
:104CF3002212457C1232CF221254B0120C4FE922F9
:104D030012457C122930F9120EB3E922C082C08306
:104D130074DE12088E8A828B83A3A3A3A312630F6C
:104D2300740E120A71E8F0A3E9124DBB740C120A57
:104D330071124DB4240DF582EB122BDAC0E0741A14
:104D4300120A71D0E0F01263067420120A71124D38
:104D5300B42415F582EB122BDAC0E07408120A7141
:104D6300D0E0F0EA241C1263097412120A7112597A
:104D73004374FF851082851183F07401120A7174E4
:104D8300FFF07402120A7174FFF09081941206937B
:104D93007404120A71AC82AD837407120A71AA8279
:104DA300AB83120BCB740412082A790074220253CA
:104DB30044E8F0A3E9F0EA22F08A828B83124DC41F
:104DC30022A3A3E0F8A3E0F92274F012036B74EEBC
:104DD30012088E7410120A71125FA78C0E8D0F8940
:104DE3000D7422120A71E0F50C7423120A71124F2A
:104DF300497508107A1E7B001214E97402120A71B5
:104E0300125FA77402120A71E07002A3E07003023A
:104E13004F1B750900AA0EAB0F1257047001E9600E
:104E23002388828983A3A3A3A3E06401600D8882FE
:104E33008983A3A3A3A3E064037009EE5440700421
:104E430074044FFF74045FF9E47001E960037509AA
:104E530001851082851183AA82AB8379501254FC99
:104E6300120A71124F2BA3125FA77402120A71E088
:104E7300240B1227DD7402F0120A71124F2B7402F5
:104E8300F0120A71125769E50EF0A3E50FF07402F0
:104E9300120A71E0241B1227DDE50DF07402120AD9
:104EA30071E0240C1227DDE50CF07410120A711264
:104EB3005505120A71E0241C1227DD125FA774083E
:104EC300120A711265A9740A120A71E50CF07425AD
:104ED300120A71125769C082C083740D120A71AC31
:104EE30082AD83D083D0827403120795A90974021B
:104EF300120A71AA82AB83120DB7E964017011E53E
:104F0300096008A90C120DE1120E0575080080084E
:104F13007402120A71124575A90874128002740290
:104F230012082A7F080205EB124F3102470A124F7B
:104F33003522E0F8A3E0F583888202470AEA240BCE
:104F4300F582EB12457FE0FEA3E0FF2274F012032B
:104F53006BEAFEEBFF8C088D0974088E828F831237
:104F63003BD5E0600874108E828F83A3F0EE241784
:104F7300122BD760098E828F83A3E02408F0122BB3
:104F8300D46005750E0E8003750E008E828F83A389
:104F9300E0C0E0EE240D124CE1D0E0FAE02A250E49
:104FA3008C828D83F0122BD4600512526C2AF0850B
:104FB3000882850983E0C394754003025089E01297
:104FC30050967001EB700302508FEEFAEFFB120E56
:104FD30029EA850C82850D83125C25EE2402F812E2
:104FE30050AB1250DAF0EE240408081250ABA3A31E
:104FF3001250DAA3A3F0EE24131250C3F0EE2414DC
:105003001250C3A3F0750808EE2416122BD76013B1
:10501300EE2418124CF4E50C2408FAE50D123B9625
:10502300750810EE2417122BD76010EE241A124CB9
:10503300F4E50C2508FAE50D123B96124CDE1250EE
:10504300CD120813EE240D122BD7FC7D008E828F18
:1050530083A3E0F8E50C28F8E50D3400F9E50E2804
:10506300FAE4391250A712082A122BD4601EEE2438
:105073000D122BD7FD8E828F83A31250B6600DAA1B
:105083000CAB0D1214EF750C00750D00AA0CAB0DD3
:10509300024F26FA7B001214E98A0C8B0DEA227D5B
:1050A30000EEFAEFFB0241F2EF126753850C8285A3
:1050B3000D8322E0FCAA0CAB0D7900121D59E922E5
:1050C30012457C1250E1A3A3A322E0F508A3E0F567
:1050D30009750A007808221250EC1250E122E0858B
:1050E3000C82850D83A3A3A322A3A3125AF2A322A6
:1050F30074F612036B8A828B83E0FC900370125167
:105103007C740278081209B8E5084CFCAD09EA245E
:1051130012125176740678081209B8E5084CFCE5BA
:10512300094DFDEA2411125176740978081209B861
:10513300E5094DFDEA2416125176740B780812091D
:10514300B8E5094DFDEA2417125176740C7808125C
:1051530009B8E5094DFD8A828B83A3A3A3A3A3A367
:1051630012517C740A78081209B8ECFAE5094DFB70
:10517300025760F582EB12457FE0F50875090022BE
:10518300740302463612518C22125191E022F085AB
:1051930010828511832274F412036B8A088B09EC45
:1051A300FEEDFFE98E828F83F012546EC0E0EE2491
:1051B30011124CE1D0E0125468C0E0EE2412124CFC
:1051C300E1D0E012545A600312543A8E828F83A3C3
:1051D300A3A3A3A3A3A3A3E060248E828F83A3A886
:1051E30082A983E0FAE5082AFAE5093400FBEE24F4
:1051F30015124CE1EAF0A3EB1245912408F0EE24DA
:1052030019124CEBEE241B124CEB125452E0FA8AA7
:105213000AE508250AF8E5093400F9EE241D125BB6
:10522300DB124205C39AC0E0EE2417124CE1D0E032
:10523300126A35E06030EE2417F508EF3400F50903
:10524300850882F583E024F2F0EE241DF8EF12675F
:105253004F240EFAA3E03400FB88828983125FA7F0
:1052630012526CC39AF002463990036BE0F9121D97
:1052730053E9FA850882850983E02274F412036BEB
:105283008A088B09EA1252FEF0EA1313543F1252B2
:10529300F7A3A3A3F0EAC413131252FEA3A3F0E4EB
:1052A3008C828D83A3A3A3A3A3F08A0A8B0B740917
:1052B300780A120A2CE50A1252EEF0EC2418F58251
:1052C300ED124CEE8A0A8B0B740B780A120A2CE54A
:1052D3000A1252E9F0740C7808120A2CE5081252EB
:1052E300E9A3F00246391252EEA32254018C828DB7
:1052F30083024708540F8C828D832254038C828D42
:1053030083A3A322C082C08379008A828B83A3A351
:10531300A3A3A3A3E090036A600FE070228A828BA9
:1053230083A3A3E07019098016E060138A828B833C
:10533300125E2A900373E06A7003A3E06B70E78048
:105343000312082AD083D08202057C74F312036B04
:105353008A088B09890CECFEEDFF12546EC0E0EE57
:105363002411124CE1D0E0125468C0E0EE24121272
:105373004CE1D0E012545A600312543A8E828F8368
:10538300A3A3A3A3A3A3A3A3E0601B8E828F83A3E2
:10539300125428EE2415124CE1125943850A8285D2
:1053A3000B83E02408F0EEFAEFFB120E3BE9707278
:1053B3008E828F83A3A3A3A3A31238AC7025E0FC32
:1053C3008C0AE508250AFAE5093400FBEE241D12D0
:1053D3005FA0E50CC39CC0E0EE2417124CE1D0E0C3
:1053E300F0803F125428740E28F8E439F9EE241D96
:1053F300124CE112594390036BE0F9121D53E9FA81
:10540300850A82850B83E0FCE50CC39C24F2C39AD6
:10541300FDEE2417124CE1EDF0AA08AB0979011255
:105423001D59025F9485820A85830BE0F8E50828FD
:10543300F8E5093400F922E5082408F8E509340001
:10544300F9EE2413125BDF125453E02408F022A375
:10545300F08E828F83A322F074088E828F83A3122F
:105463006A39A3E02212594DA3E0228A828B831268
:1054730054B0120E35850882850983A3A31254B450
:10548300E0F9EA8E828F83A3A3A3A3A3A3A3A3A379
:10549300F0A3E9125BF91254B4A3A3E0F9EAF8EE1E
:1054A300240B125BDF12594DE022124583E0022BDD
:1054B300F4E0FA850882850983A3A3A322C082C0EE
:1054C300837AE57B0379E2121CC97AE57B030253F5
:1054D30047C082C083900373125E33025347C08276
:1054E300C08374FE12088E851082851183AA82AB55
:1054F30083794B1254FC025344121CC985108285D4
:1055030011831254B0740222C082C083794A121CE0
:10551300C902534774F612036B9003EDE0FE04F0E7
:10552300EEF9120DE1EA7001EB70EEEE60EBF902B9
:10553300576074F012036B74FE12088E8510828517
:105543001183ECF0A3EDF08A0C8B0D890874121211
:105553000A71E0F50E750900750F0085108285113B
:1055630083E0FC120F558A0A8B0BAE0AAF0BEE7069
:1055730001EF701C7413120A71E06003025644A910
:1055830008851082851183125711120F610257018A
:10559300E5086020EE2402122BD7F885080AE50AF5
:1055A30028F8E4340013E813F0700974018E828F35
:1055B30083A3A3F07413120A71E0606F9003F8E001
:1055C3007002A3E060099003F8125769121E87E581
:1055D3000E70128E828F83E0607E14F06402707806
:1055E300750F01807390036DE0A2E150739003FA8D
:1055F300E07002A3E0600FA90EEEFAEFFB9003FA4E
:10560300125769121E878E828F83E0C3940450035E
:10561300E004F0E06403700A750901AA0CAB0D12F3
:105623000D1BE48E828F83A3F0802D9019B5E0C00B
:10563300E08E828F83A3A3E0FAD0E0C39A5019804F
:105643009F64017013E508600F90036DE0A2E150C1
:1056530019AA0CAB0D120D1B90036DE0A2E14029BA
:105663007413120A71E06401701FE50E6016900353
:10567300FCE004F0C0E0901990E0FAD0E0C39A4057
:1056830008750901E49003FCF0E50F7004E5096077
:105693006D90036DE0A2E15030AA0CAB0D125704DC
:1056A3007001E96024E50F600D88828983A3A3A3B9
:1056B300A3A3E0C2E0F0E509604488828983A3A341
:1056C300A3A3A3E0D2E0F08004E509603190036D69
:1056D300E0A2E15012AA0CAB0D120AB7E96008AAC6
:1056E3000CAB0D79008014900376E0650C7004A375
:1056F300E0650D7009AA0CAB0D7901120BF5024F91
:1057030021120ABD8A0A8B0BA80AA90BE8221232BE
:10571300CFAA0CAB0D22C082C08374016A7001EB67
:1057230070077A011245548016901987125FA7EA11
:105733007001EB600512273E80057A0112273302C0
:105743005347C082C083901989125FA7025347C091
:1057530082C08390198B80F1740D12082A7F020294
:1057630005EB8E828F83125DA622A2F0E492E012F3
:10577300577B7952121CCF22851082851183F0AAA0
:1057830082AB832212577B7942121CCF2274F4120C
:10579300036B74EC12088E7401120A71AC82AD8330
:1057A3001258B29003BFE06402702E7A047900129B
:1057B3000AA5126718EA98EB997405500F120A713B
:1057C3007401F07407120A7174018050120A71E4B3
:1057D300F07407120A71E480439081947808120AE6
:1057E3004A75830375828B78081208BA60047A01BC
:1057F30080027A007405120A71EAF09081947808A5
:10580300120A4A75830375828F78081208BA6004F6
:105813007A0180027A007407120A71EA125875122B
:105823000A711258647407120A71E0700B7405123E
:105833000A71E07003E4800274018510828511838C
:10584300F090191CE090191BFAE05AFA8510828532
:105853001183E05A1257817941121CCF7414024606
:1058630036AA82AB83120D997AD07B037945121C39
:10587300CF221258A774012274F712036B74ED122E
:10588300088EE9FE9003CC125E441258B2741212D1
:105893000A71EE1258A78510828511831258647419
:1058A30013024A6DF0901920E0F97CD07D03229019
:1058B3001920E0F97AD07B03120D9F2274F41203AE
:1058C3006B8A088B09901922E064FE7004A3E064DC
:1058D300FF70617A1612389D7001EF605774018E64
:1058E300828F83125949E060047402800274018E2E
:1058F300828F83A3F0E508241DF582E509125D027A
:105903008E828F83A3A3A3A3A3A3A3A3A3125ADD6E
:10591300FCA3E0FDEE24020A0A123B95EE241312C7
:105923004CE1E4125953126242E509124CE4125F4E
:1059330099125943024639124DC68E828F83A3A30F
:10594300E8F0A3E9F02212594D22125BFDA3A32232
:10595300F012595822EEFAEFFB9003CDE0F912143E
:10596300712274F212036B74FD12088E8A088B097C
:10597300890C8C0D7401120A717404125C34700169
:10598300EF7003025A11EE126244EF12630C7407B4
:1059930088828983F0A3A882A983E5082408FAE50D
:1059A30009125A24125A348A828B83125A33850875
:1059B30082850983A3A3A3A3A3A3A3A3A3A3E0888B
:1059C300828983123BD67401F0EE2418124CE11243
:1059D30069A9125C15EE2413125A2C7403650C602A
:1059E300067401650C7007125A1C74048004125A61
:1059F3001CE4F090192212593A7401650D7006EEF9
:105A03002411124CEBEEFAEFFB120B7180027910AA
:105A1300901922125A4802291F1245797440F0A3A3
:105A2300223400FB8A828B8322F582EF125C2D22C3
:105A3300A3E088828983F0A308A98322A3A3A3A355
:105A4300A3A3A3A3A374FEF0A374FFF02274F41220
:105A5300036B8A088B097A007B04122735125AD309
:105A63001259437409900382F0120E478A0A8B0B72
:105A7300AC0AAD0BE5082413F582E509124CE412D8
:105A83005E33125FAC6401704412389B7001EF60A7
:105A93003C74028E828F83F0E508241DF8E5091219
:105AA300331C125E338A828B83126090E0FBEC8E90
:105AB300828F83A3A3F0A3EB125AEB124118125A5D
:105AC300DDFAA3E0FB794A121CCF1259580246397A
:105AD300900344124DC690198B22A3F0E5082415B8
:105AE300F582E509124A9822125AF2125AF622F066
:105AF30002331FE0F8A3125DADA3A3A32274F41233
:105B0300036B74FD12088E8A088B097401120A71E3
:105B13007402125C347001EF7003025BD6EE126202
