:020000040000FA
:060000000213130207A920
:03002B000210A31D
:03003300020D9625
:03004300020FC2E7
:030053000206E0C2
:03006B00020D7013
:100083000207330101FF01010503010F10FEFF5DAC
:100093001B5D1B5D1B5D1B131A0D1A5D1BC82B001B
:1000A3000000008C2C000000000C0000000C00017C
:1000B30000007F1D0000000000003F1E0000000044
:1000C300000000000000FFFF010200C8070000005D
:1000D3003B086400020200080000050207051E0237
:1000E300051E020A0A03B80B02803E0102FFFF1439
:1000F3009651180002020630313233343536373820
:100103003941424344454600286E756C6C20706F3C
:10011300696E74657229003F3F3F000000807F00D5
:1001230000803FF9021550B743BA51000020410047
:10013300E7DB2E0000A0401000000012135F6046B2
:10014300121332603DE9687008F618F618F618F6CF
:1001530022748067F7120172090909748067F72214
:10016300121332601D12135F7005191919801A12C8
:1001730011B0701F121186C37003E6673319191982
:1001830040071818182208080874FFF618F618F61E
:1001930018F622121186601712139E702192F01224
:1001A30013A87019501720F014080808090909E763
:1001B300F61819E7F61819E7F61819E7F6221213D5
:1001C300A860E6E869701F0808E62480F608E436AC
:1001D300F618547FB47F0CE654806007F6E418F6F3
:1001E30018F622181822E9C6CC08C6CD08C6CE08D0
:1001F300C6CFC0E0E8C0E0EAC0E0EBC0E009E9F840
:1002030009E7FA09E7FBE6F918E6F8C3EC98ED9974
:10021300EE9AEBC2E7F5F0EFC2E795F0500E600CF3
:10022300EBCFFBEACEFAE9CDF9E8CCF8EAA2E7D2C4
:10023300E7FAEB33FB13F5F0EEA2E7D2E7FEEF3379
:10024300FFC5F013A2E730E601B313C5F0C3C0E066
:10025300C0F07F00C39BFB605B9418600C401AD016
:10026300E023F9D0E0F80203418AF0E9486003D2C1
:10027300F0E4AFF0FAF9F8803BEB30E40D89F0EAF3
:100283006003D2F0E4AFF0F9CAF8EB30E30D88F085
:10029300EF6002D2F0AFF0E4CAC9F8EB5407601480
:1002A300FBC3EA13FAE913F9E813F8EF135002D288
:1002B300E0FFDBEDD0E0C0E030E739C3E49FFFF5BA
:1002C300F0EC98FC42F0ED99FD42F0EE9AFE42F01C
:1002D300D0E0F9D0E0F8E5F0607AE923F9EE20E721
:1002E30042D8028067C3EF33FFEC33FCED33FDEEFE
:1002F30033FE80EAEC28FCED39FDEE3AFED0E02334
:10030300F9D0E0F84002801BC3EE13FEED13FDECC1
:1003130013FCEF135002D2E0FF08B800067F7F748E
:10032300FF802EEF3350178CF020F00260100CBCCE
:10033300000C0DBD00080EBE000408E860DFE933C1
:10034300E813FFEE2313FE4F4D4C8008E95480FF62
:10035300E4FEFDFCEE33EF33F47004FCFD7E80D04D
:10036300E0FBD0E0FAD0E0F8D0E0CFC618CEC61854
:10037300CDC618CCC6F922121332700418181822ED
:1003830012135F700D74FFF61819F61819F6181981
:10039300F622E7548066F61213A8700F12139E70AC
:1003A300F014F608F608F608F680D112139E700CC6
:1003B300F608F608768008E6447F80EC121189700F
:1003C3000C1211B360BFE65480F6E480BB1211B384
:1003D300700519191980A5E869700C763F187680A5
:1003E30018F618F6E8F922E6CDC0E018ECC0E0E60E
:1003F30033CD33CDD313F6E719FCE7191933CC33D7
:10040300C3947F400ECD9D502408E65480F6E41833
:10041300F6800FF4043D14501408E6447FF6187672
:1004230080E418F618F6D0E0FCD0E0FD22CCD3131C
:10043300CCFD18E4C6CBC0E018E4C6CAC0E0080887
:10044300ED08C633E613F618E433C675F003C3CAE2
:1004530097CA09CB97CB199C40047D08802EBD0019
:100463000302052316B6FF050606081618C3CA338A
:10047300CACB33CB33CA27CA09CB37CB193CC37D8D
:1004830008803E187D0820E75CC633C6CA33CACB52
:1004930033CB33DDF1D5F0EB30E77BCA97CA09CB19
:1004A300974ACB199C406F4B7025E620E02180666C
:1004B300187D08C3CA97CA09CB97CB199CD3C633F7
:1004C300C6CA33CACB33CB3350C9DDE7D5F0E1D34A
:1004D300E4C636C608C636C608C636C608C636C615
:1004E3001818188031C3CA97CA09CB97CB199CB384
:1004F3004097C633C6CA33CACB33CB33DD34D5F0CA
:100503002EC6A2E0C640C8CA27CA09CB37194A700B
:10051300BECB3CB480B90808E63308E633601F1845
:100523001818D0E0FAD0E0FBD0E0FCD0E0FD2218B0
:100533007D08CA27CA09CB37CB193CD3808013F671
:1005430018E4B67F11F618B6FF0EF618C60470D27B
:100553000808768080CAF618F618F680C5001213CC
:1005630032604F12135F6012E7548066F61211B0C7
:10057300701112139E703B090909F4F618F618F668
:1005830018F62212118670151213A808080860EADB
:10059300E6447FF618768018E4F618F6221213A8BC
:1005A300601612139E7012E4F608F608F608E65475
:1005B30080F609090918181822EAC0E0EBC0E0EC3C
:1005C300C0E0EDC0E0E687F0A4FBACF008E687F0FE
:1005D300A42CFCE435F0FA1809E687F0A42C4B6050
:1005E300027401CA35F0FCE433FB09E687F0D2F765
:1005F300A42CCB35F0FC1908E687F0A42BCC35F0FE
:10060300FBE433FD0819E687F0D2E7A42C4ACB3587
:10061300F0CD3400FC09E687F0D2E7A42DCC35F009
:10062300FDE433FA0918E687F0D2F7A42CCD35F0B0
:10063300CA3400FC08E687F0D2E7D2F7A42ACC3507
:10064300F07A7E20E70B0ACB33CBCD33CDCC33CC42
:1006530033CB3350147004ED30E00ED2F1E4CD3DD2
:10066300CDCC3CCC3B5005DA05C2F1EB547FC6330D
:1006730008E63392F0FBE73309E733C39A502D2B97
:1006830070190C0D4C4D70151806E608C333700D28
:1006930020F10AA2F013F6E418800B4024E4F630AC
:1006A300F002768018F618F618F68024D33B14501F
:1006B3001074FFA2F013F6187680E418F618F6808B
:1006C3000FA2F013F618E63303F618ECF618EDF65E
:1006D300D0E0FDD0E0FCD0E0FBD0E0FA22C0E07433
:1006E300F2120AD0A2AFE433F508D2AFE5A7FEE5D4
:1006F300A1FFEF5E541060061225E375A1EFEF5ED4
:10070300540860081225E975A1F78019EEA2E0C02C
:10071300D0EFA2E092F0121250158182F05006122F
:10072300269D75A1FEE508A2E092AF7F01020B2F83
:10073300C0E074F2120AD0A2AFE433FFD2AF9061EB
:10074300A4E0FE759B00E5915E540860087591F77F
:1007530012263D802DE5915E541060087591EF12CD
:100763002643801EEEA2E0C0D0E591A2E092F012F3
:100773001250158182F0500A9061A4E0C2E0F01299
:10078300278D9061A3E0FEE5E95E5404600E122715
:100793006375E9FB906193E0A2E640F2EFA2E09279
:1007A300AF7F01020B2FC0E074F2120AD0A2AFE4B4
:1007B30033FFD2AF9061A5E0FEE5BF5E540460064F
:1007C30075BFFB1227A5EFA2E092AF7F01020B2FAB
:1007D300C3E498F8E499F91208148026C3E49AFA5A
:1007E300E49BFBE920E7E9120814E498F8E499F99B
:1007F30022C3E498F8E499F9120814E498F8E49908
:10080300F9C3E49AFAE49BFB22EB20E7CFE920E764
:10081300E0B90010BB0008E88AF084F8AAF022E4EB
:10082300FBC8FA22EB70227B10C833C8C933C93323
:100833005007C39AC3DBF280069A50012ADBEAC849
:1008430033F4C8C933F4C9FA2275F008E4C833C8CD
:10085300C933C933C99AC99B5004C92AC93BD5F0C6
:10086300ECFBC833F4C8E4C9FA221208AD20F01433
:1008730030E72B74FFFCFBFA747F8022E4FCFBFA65
:100883007480801AB48008BC00F2BB00EF800F5064
:10089300EBF9E4C39AFAE49BFBE49CFCE499C6CC31
:1008A30018C6CB18C6CA18C6F922E4C9C608CAC6F0
:1008B30008CBC6D3330308CCC63392F0C3947F402E
:1008C3002E94184019C9B90704CACBCC225025C3AA
:1008D30009CA33CACB33CBCC33CC33D9F422F4603B
:1008E3000DC9CCC313CB13CBCA13CAD9F6CC22E49C
:1008F300FCFBFA2214FCFBFA22080808EAC0E0EB2E
:10090300C0E086F0E7A4FA180986F0E7A42AFA18EB
:100913000986F0E7A42AFA180986F0E7A42AFA1947
:1009230086F0E7A4FBE5F02AFA190886F0E7A42B82
:10093300FBE5F03AFA190886F0E7A42BFBE5F03A59
:10094300FA18180986F0E7A4C5F02BFBE43AFA1964
:1009530008E7C5F0C6A426F6E5F03BFBE43AFA182F
:1009630086F0E7A4F6E5F00826F6E43B08F6E43A59
:1009730008F6D0E0FBD0E0FA22080808E630E711D9
:100983001211EF120994080808C64480C6181818F3
:1009930022181818E9799EC608CAC608CBC608CC1F
:1009A300C6C370207996CACBCC7019798ECBCC7024
:1009B300137986CC700EF9802ACA33CACB33CBCCD9
:1009C30033CC331930E7F2CCCBCA3350147004EA7A
:1009D30030E00DE4CA3ACACB3BCBCC3CCC50020945
:1009E300C3E913C6CC182313C6CB18C6CA18C6F955
:1009F30022E4CFC0E0E4CEC0E0E4CDC0E0E4CCC06C
:100A0300E075F020C3E633F608E633F608E633F67E
:100A130008E633F6181818EC33FCED33FDEE33FE1D
:100A2300EF33FFC3EC9709ED9709EE9709EF971999
:100A33001919400FFFEC97FC09ED97FD09EE97FE9E
:100A4300191906D5F0BEECF709EDF709EEF709EF32
:100A5300F7191919D0E0FCD0E0FDD0E0FED0E0FF9B
:100A6300222518C582C0E0E51934FFC583C0E0E53F
:100A730018C3958224F810AF0885831985821880DE
:100A830008858319858218D2AFCEF0A3E520F0A3A1
:100A93007808E608F0A3DEFAEFF0A3E58124FAF87C
:100AA300E608F0A3E608F0A3E608F0A30808E608C2
:100AB300F0A3E608F0A315811581D0E0FED0E0F89D
:100AC300158115811581E8C0E0EEC0E022C0D02574
:100AD30018C582C0E0E51934FFC583C0E0E518C33B
:100AE300958224F310AF08858319858218800885C1
:100AF3008319858218D2AFC8F0A3E9F0A3EAF0A363
:100B0300EBF0A37908E709F0A3D8FAECF0A3EDF032
:100B1300A3EEF0A3EFF0A3D0E0F0A3D0E0F0A3D0D6
:100B2300E0F0A3E520F0A3E5F0F0A3228519838587
:100B33001882E0C0E0A3E0F9A3E0FAA3E0FBA37806
:100B430008E0F608A3DFFAE0FCA3E0FDA3E0FEA3C0
:100B5300E0FFA3E0C0E0A3E0C0E0A3E0F5D0A3E0A2
:100B6300F520A3E0A3F5F010AF088583198582185B
:100B73008008858319858218D2AFD082D083D0E0D4
:100B8300F8D0E032121393B90003020BC9E49003C7
:100B93000178E1790E8002F0A3D8FCD9FA9010E134
:100BA300AA82AB8390008678B979018015E493A378
:100BB300AC82AD838A828B83F0A3AA82AB838C82BF
:100BC3008D83D8E9D9E77582507583AA740512100D
:100BD300857582CF75832A74001210851211F2185D
:100BE30018181209F41212C2191919221212C21971
:100BF3001919080808E618181820E7E01209F41272
:100C030011F218181822090909E719191920E7DC44
:100C1300080808E618181820E7030209F41211F26D
:100C23001818181209F41211F21818181212C2190E
:100C3300191922040075F0108E1A8F1B85821F85E7
:100C4300831E851882851983E0CEA3E0CF851F829A
:100C5300851E83EBC9EAC8EDCBECCAC3E833C8E908
:100C630033C9EA33CAEB33CBC3EA9EF51DEB9FF5D9
:100C73001CB35004AB1CAA1DEC33CCED33CDD5F023
:100C8300DAAE1AAF1B22121332601C12135F601705
:100C93001213A8700712139E7001D322C0D012132F
:100CA3009E7006D0D0B322C32233D0D0501430E08C
:100CB300F6C3E7960809E7960809E7960809E79651
:100CC300B32220E0D5E6970809E6970809E69708D6
:100CD30009E697B322121332601B12135F601612D8
:100CE30013A8700712139E600CB322C0D012139E78
:100CF3007005D0D022C32233D0D0501330E0EBC3E1
:100D0300E7960809E7960809E7960809E796222077
:100D1300E0E4E6970809E6970809E6970809E697E5
:100D230022D083D082ECC0E0EDC0E0E493A3FCE4E6
:100D330093A3FDED4C600D120E48EC24FFFCED3443
:100D4300FFFD80EFE493A3FCE493A3FDED4C600D62
:100D5300120F47EC24FFFCED34FFFD80EFD0E0FDE4
:100D6300D0E0FCE493A3C0E0E493C0E022C0E074CD
:100D7300F2120AD0A2AFE433FED2AFE589A2E1506A
:100D830003122487758900C2C5EEA2E092AF7F01EA
:100D9300020B2FC0E074F2120AD0A2AFE433FED2EA
:100DA300AFE58BA2E05003122487758B00C2E8EEF7
:100DB300A2E092AF7F01020B2FD083D082E9C0E083
:100DC300E493A3C386F0C5F095F0F908E493A386F2
:100DD300F0C5F095F0700BE493A3C3994005E904C3
:100DE3008002A3E475F002A42582F582E5F0358341
:100DF300F583D0E0F9E493A3C0E0E493C0E0228557
:100E03001983851882E0A3FEE0A3F5207808E0A308
:100E1300F608DFFAE0A3FFE0A3C0E0E0A3C0E0E050
:100E2300A3C0E0E0A3C0E0E0A3C0E010AF08858268
:100E3300188583198008858218858319D2AFD083DA
:100E4300D08202108BC0E0C3E4939608740193969A
:100E530018400FE4936670080874019366187000D5
:100E63007019A3A3C3E49396087401939618A3A3DC
:100E7300400DD0E0D0E0D0E0020D60A3A3A3A3A374
:100E8300A3D0E022D083D082C5F0E493A3C5F0C3FE
:100E930095F0F5F0E493A3C395F04005E5F00480E5
:100EA30001E475F002A42582F582E5F03583F5832C
:100EB300E493A3C0E0E493C0E022740480047402CA
:100EC3008000CCC0E0EDC0E0E518C39CCCAD195068
:100ED300011D10AF068C188D1980068C188D19D240
:100EE300AF121007D0E0FDD0E0FC2274028000CCEA
:100EF300C0E0EDC0E0E518C39CCCAD1950011D1056
:100F0300AF068C188D1980068C188D19D2AF120F6D
:100F1300E5D0E0FDD0E0FC22121332602512135F0E
:100F230060201213A8700302139E080808E7667076
:100F3300101819E766700A1819E76670041819E79C
:100F43006622F422C0E0C0F088F0E49366700808DB
:100F530074019366187000A8F0A3A3700BD0F0D0AF
:100F6300E0D0E0D0E0020D60A3A3D0F0D0E022D027
:100F730083D082CCC0E0E493A360061210661470A1
:100F8300FAE493A3600612115A1470FAD0E0FCE459
:100F930093A3C0E0E493C0E022C008C3E096F50841
:100FA30008A3E096420808A3E096420808A3E09647
:100FB3004208A2D265D033E5087001D3D00822C01D
:100FC300E074F2120AD0A2AFE433FED2AFC2C0E59E
:100FD300D1A2E45003122541EEA2E092AF7F0102B9
:100FE3000B2FCAC0E0E493A3C582CCC582C583CDD1
:100FF300C583F0A3C582CCC582C583CDC583DAE59D
:10100300D0E0CA22CAC0E0E0A3C582CCC582C583B2
:10101300CDC583F0A3C582CCC582C583CDC583DA94
:10102300E6D0E0CA227009080808226016181818CA
:10103300C6C333C608C633C608C633C608C633C6D6
:10104300D5E0EA22C008C3E096F50808A3E096427B
:101053000808A3E096420808A3E09645087001D368
:10106300D00822C0E0E493A3D39C5010E493A3C31D
:101073009C400AD0E0D0E0D0E0020F8FA3A3A3D01E
:10108300E022C09FF59FE473D09F22D083D082C01B
:101093009FE493C0E0740193C0E0740293F59F2230
:1010A300C0E0C0D0E8C0E0A2AFE433F8D2AFC2C71B
:1010B300A2E092AFD0E0F8D0D0D0E0327404800A3E
:1010C30074038006740280027401C0E0F4041210F9
:1010D300DAD0E012136E222518F58210AF08F51846
:1010E300400215198008F51840021519D2AF851969
:1010F3008322BB0102E722C082C08389828A83BB29
:101103000003E08002E493D083D08222C0D025186C
:1011130010AF08F518500205198008F5185002059C
:1011230019D2AFD0D0226016080808C6C313C61858
:10113300C613C618C613C618C613C6D5E0EA22C31B
:10114300E0C696F608A3E0C696F608A3E0C696F6B0
:1011530008A3E0C696F622C0E0E493A36C7009D01E
:10116300E0D0E0D0E0020F8FA3A3D0E02225181037
:10117300AF08F518400215198008F5184002151933
:10118300D2AF22191919E7094709700AE709C333CE
:101193007005E733F4220922E066701008A3E066C5
:1011A300700A08A3E066700408A3E0662218181802
:1011B300E6084608700AE608C3337005E633F422EE
:1011C3000822E76670100809E766700A0809E766EF
:1011D30070040809E76622C3E09608A3E09608A313
:1011E300E09608A3E096A2D265D03322181818E43B
:1011F300C396F608E496F608E496F608E496F62213
:10120300C3E096F008A3E096F008A3E096F008A3E5
:10121300E096F022E627F60809E637F60809E637EE
:10122300F60809E637F622E026F608A3E036F608C4
:10123300A3E036F608A3E036F622E026F008A3E0A2
:1012430036F008A3E036F008A3E036F022C0E0E869
:10125300C0E0E58124FCF8E6A2E7D0E0F8D0E02284
:10126300E056F008A3E056F008A3E056F008A3E028
:1012730056F022E657F60809E657F60809E657F648
:101283000809E657F622E056F608A3E056F608A347
:10129300E056F608A3E056F622E647F60809E647C5
:1012A300F60809E647F60809E647F62270042260C5
:1012B3000D18C6C333C608C633C6D5E0F41822E4F6
:1012C300C397F709E497F709E497F709E497F72237
:1012D300C3E09608A3E09608A3E09608A3E096224D
:1012E300C6F4C608C6F4C608C6F4C608C6F4C622C1
:1012F300600D08C6A2E713C618C613C6D5E0F322CD
:10130300C3E7960809E7960809E7960809E79622CE
:1013130075D00075814075180175190300020B879C
:10132300E6F008A3E6F008A3E6F008A3E6F022E659
:10133300084608C3134608336002E633F422600C00
:1013430008C6C313C618C613C6D5E0F422E0F608D0
:10135300A3E0F608A3E0F608A3E0F622E7094709AD
:10136300C3134709336002E733F422CAC0E0E6F04F
:10137300A308DAFAD0E0FA22EAF0A3EBF0A3ECF048
:10138300A3EDF022E0FAA3E0FBA3E0FCA3E0FD223F
:10139300E5C754F84401F5C7790122E7C333194778
:1013A3001947194722E6C33318461846184622251B
:1013B30018F582E43519F58322C2AF75D69F020072
:1013C300002212108E54350012108E983500121020
:1013D3008EBD350012108E00360012108E4D360071
:1013E30012108EA5370012108E2B380012108E4962
:1013F300380012108E73380012108E8D38001210C0
:101403008E9C380012108EA7380012108E67390098
:1014130012108EC0390012108E823A0012108E8A7A
:101423003A0012108E4E3B0012108EBA3B0012107F
:101433008EE53C0012108E0A3D0012108E803D0096
:1014430012108E123E0012108E6A3E0012108E2A67
:101453003F0012108E493F0012108E5840001210A8
:101463008E6A400012108ED9400012108E2E420058
:1014730012108E60420012108EF3420012108E2C56
:10148300430012108E78430012108E944400121001
:101493008EDD460012108EE8460012108EF34600D1
:1014A30012108EFE460012108E08470012108E1383
:1014B300470012108E2D470012108E37470012106E
:1014C3008E41470012108E4C470012108E74470055
:1014D30012108ECF470012108ED9470012108EFDC6
:1014E300470012108E21480012108E7F4800121000
:1014F3008EC3480012108EDF480012108E5649002A
:1015030012108E8E490012108EDA490012108E3797
:101513004A0012108EF14A0012108ED54C001210A0
:101523008E2E4D0012108E5E4E0012108E844E00D1
:1015330012108E0D500012108E89530012108E5B04
:10154300550012108E24570012108ED1570012101E
:101553008E3C590012108EDB590012108E205A0057
:1015630012108E8A5A0012108E995A0012108E2071
:101573005D0012108ED25E0012108E3F5F001210BB
:101583008E1E600012108E37610012108EB462003E
:1015930012108ED3620012108E28630012108E2D4B
:1015A300640012108E55640012108EAD6400121088
:1015B3008E8C650012108ED0650012108E1B660093
:1015C30012108E86660012108EC7670012108E2BC3
:1015D300680012108E79690012108ED96B001210F8
:1015E3008E0A6C0012108EC26D0012108E176E00E0
:1015F30012108E1B6F0012108EB86F0012108E1116
:10160300700012108EC4700012108E6671001210DA
:101613008E06720012108EAB720012108E5D830163
:1016230012108E9C830112108EE3850112108E2DF1
:10163300860112108E48870112108EB08701121096
:101643008EE5870112108E59890112108EDC8B01F1
:1016530012108E058D0112108E9B8D0112108EA318
:10166300960112108E38970112108E1F9A011210D4
:101673008E129B0112108E809B0112108EC69C014C
:1016830012108EA89D0112108E8D9F0112108E9E36
:10169300A10112108E08A20112108EDAA2011210FB
:1016A3008E08A30112108EC5A30112108E9CA401F3
:1016B30012108E63A50112108E07A60112108E3030
:1016C300A60112108E52A60112108EA8A8011210A4
:1016D3008E80A90112108EC4A90112108E2CAA01AA
:1016E30012108EE4AA0112108E16AB0112108E5A3C
:1016F300AB0112108E90AB0112108EDCAB011210F5
:101703008E31AC0112108E36AC0112108E89AC01F1
:1017130012108EAEAC0112108EBDAD0112108E21CF
:10172300AE0112108E91AE0112108E1DAF01121078
:101733008EEAB10112108ECEB20112108E51B40195
:1017430012108E87B60112108E35B70112108EE576
:10175300B70112108E26BA0112108EC9BA011210E7
:101763008E10BB0112108EBCBC0112108ED0BC01B6
:1017730012108EDABC0112108E02BD0112108E0EF1
:10178300BD0112108E2DBD0112108E4DBF0112101E
:101793008E9CC00112108EE0C00112108E88C10110
:1017A30012108E6BC20112108E16C30112108E62BC
:1017B300C40112108E60C50112108E06C6011210EC
:1017C3008E96C60112108EADC60112108EE4C601AC
:1017D30012108EEEC60112108EF9C60112108E176A
:1017E300C70112108E5BC70112108EB8C701121009
:1017F3008EDDC70112108EF7C70112108E83C80148
:1018030012108EA0C90112108E0DCA0112108EF48F
:10181300CA0112108E1BCB0112108E8FCB01121036
:101823008E0ACC0112108E0ECD0112108E04CE0141
:1018330012108EB3CE0112108EC6CF0112108E621B
:10184300D00112108EEFD00112108ECDD1011210E3
:101853008E05D20112108E5DD20112108E26D30195
:1018630012108E47D30112108ECED30112108EF2B6
:10187300D30112108E14D40112108E5DD4011210F4
:101883008E73D60112108E5AD70112108E0BD80107
:1018930012108E41DA0112108E91DA0112108ED1DC
:1018A300DA0112108E13DB0112108E6FDB0112109E
:1018B3008E9DDB0112108EC1DB0112108E14DC0130
:1018C30012108E42DC0112108E7BDC0112108ED0BE
:1018D300DC0112108E36DD0112108E8ADE01121029
:1018E3008EADE00112108E1AE10112108E43E10158
:1018F30012108ECEE10112108E35E20112108E808D
:10190300E20112108EA4E20112108EC8E20112103D
:101913008E23E30112108E3EE30112108EF7E301D2
:1019230012108E63D00512108EA2D00512108E787D
:10193300800212108EBE800212108E9E810212103F
:101943008EA0820212108EA3830212108E2F8502A4
:1019530012108E8D850212108E4A860212108E6826
:10196300870212108ED9870212108E158802121068
:101973008E63880212108E6D880212108EB1880257
:1019830012108E0D890212108EA8890212108E2554
:101993008A0212108EF48A0212108E8D8B0212109C
:1019A3008EAD8B0212108EE38B0212108E148C02FA
:1019B30012108ED58C0212108EE58C0212108E3905
:1019C3008D0212108E548D0212108E668D0212102B
:1019D3008E6F8D0212108EC98D0212108E258E020B
:1019E30012108E718E0212108E8C8E0212108EBD0A
:1019F3008E0212108EDA8E0212108EE68E021210F2
:101A03008E5A900212108E73900212108EDA900288
:101A130012108EED900212108EFB900212108EAFF8
:101A2300910212108E93920212108E999302121049
:101A33008E23940212108E2D940212108E9A940209
:101A430012108EB1940212108EE3940212108E1CA7
:101A5300950212108E46950212108EA7950212104F
:101A63008EC7950212108EE5950212108E2B9602E8
:101A730012108E51970212108E9E970212108ECD65
:101A8300970212108E43980212108E6B9802121056
:101A93008EA4980212108EB2980212108E0A990226
:101AA30012108E59990212108E98990212108EC834
:101AB300990212108EF4990212108EFF99021210DD
:101AC3008E1D9A0212108EDF9A0212108EE99A026C
:101AD30012108E249B0212108E3A9B0212108E8FCC
:101AE3009B0212108EA39B0212108EB19C02121045
:101AF3008EC49C0212108ED99C0212108E7B9D0202
:101B030012108EFE9D0212108EBC9E0212108EC702
:101B13009E0212108EF39F0212108E0FA00212105B
:101B23008E61A00212108EA0A00212108EB5A00228
:101B330012108E17A10212108EA6A10212108EF19E
:101B4300A10212108E42A40212108EC0A40212101F
:101B53008E35A50212108E57A70212108E6FA702A0
:101B630012108E72A70212108E7EA70212108E928E
:101B7300A70212108E9AA70212108ECDA70212107E
:101B83008E7DA80212108EF3A80212108E66A9028F
:101B930012108E1AAA0212108ECFAA0212108EEE03
:101BA300AA0212108E8EAB0212108E9AAB02121082
:101BB3008EC5AB0212108EC8AB0212108E32AC026D
:101BC30012108E5AAD0212108E32AE0212108EBD5A
:101BD300AE0212108ED6AF0212108E93B002121004
:101BE3008ECCB00212108EFDB00212108EBBB10269
:101BF30012108EEBB10212108EC6B20212108E5F5B
:101C0300B30212108EEAB30212108E9BB4021210AA
:101C13008E1EB50212108E50B50212108E91B502AF
:101C230012108E62CD0412108EE4CD0412108E2495
:101C3300CE0412108E9DCE0412108E77D104121092
:101C43008E07D40412108ED3D70412108E0BD8042F
:101C530012108E39D80412108ECBD80412108E1F96
:101C6300D90412108E52D90412108E7BD90412108B
:101C73008EC5D90412108E46DA0412108EAC9C0461
:101C830012108E369D0412108EAB9D0412108E2DF1
:101C93009E0412108E0BA10412108E2EA10412109A
:101CA3008E87A10412108E85A20412108EEFA20457
:101CB30012108EC2A40412108E2AA60412108EB122
:101CC300A60412108E3FA70412108EA8A7041210A8
:101CD3008EF6A70412108EB6A80412108EDFA90484
:101CE30012108E5CAA0412108EC2AA0412108E0562
:101CF300AB0412108EABAB0412108E8CAC0412101A
:101D03008E2EEE0412108E44F10412108EE4F304AE
:101D130012108ED8CD0512108E58AA0312108E8978
:101D2300AB0312108E8CAC0312108E94AD03121001
:101D33008E94AE0312108E7DB80312108EECB8038E
:101D430012108EA9B90312108E00CE0312108E3119
:101D5300C10512108E42C10512108EC2C1051210A8
:101D63008E0AC20512108EF6C20512108EB77E00BF
:101D730012108EF0BE0512108EE2C00512108E7E78
:101D8300BD0412108E66BE0412108E8DBE04121096
:101D93008ED1BE0412108EEFBE0412108E6DBF04DE
:101DA30012108EA5BF0412108EDDC10412108ED244
:101DB300C20412108EEDC30412108E7FC4041210DD
:101DC3008E04C50412108EBCC50412108E58C604AE
:101DD30012108EA7C60412108E78C70412108E73C9
:101DE300C80412108E19C90412108E44CB041210A9
:101DF3008E77CC0412108ED8CC0412108E32CD0400
:101E030012108EFFB90512108E22BA0512108E1C05
:101E1300BB0512108ED3BB0512108E17BC05121012
:101E23008EC1A60512108E45A70512108E55A70563
:101E330012108E7FA70512108E31E40112108E341A
:101E4300E40112108E83E50112108EF7E5011210E2
:101E53008E85E60112108E42E70112108EFFE70114
:101E630012108E4B2F0012108E89E90112108EAAC8
:101E7300EB0112108E67EC0112108E24ED0112108B
:101E83008EB8ED0112108EC3EE0112108E36EF01E3
:101E930012108E78F10112108EDFF20112108E46AD
:101EA300F40112108EA1F40112108E38F5011210F4
:101EB3008E1BF60112108E4DF60112108E49F90198
:101EC30012108EEAF90112108E68FA0112108EA315
:101ED300F00312108EB8F00312108E10F1031210DB
:101EE3008EB8F10312108E94340012108E0CF2038C
:101EF30012108E30F30312108E96F60312108EA476
:101F0300F60312108E08F70312108E46F703121011
:101F13008EC9F70312108E70F80312108EBFF803E8
:101F230012108E40F90312108EAEF90312108EE5D3
:101F3300F90312108E6EFA0312108EFFFA031210B9
:101F43008E54FB0312108EB1FB0312108EC3FB03DE
:101F530012108ED5FB0312108EFBFB0312108E049E
:101F6300FC0312108E58FD0312108EE9FD031210AC
:101F73008E84F60412108EA7F70412108E03F80451
:101F830012108E1DF80412108E2EF80412108E29D2
:101F9300FB0412108E49FB0412108E1ACF05121087
:101FA3008E5FB70512108EA4B70512108EEFB7051A
:101FB30012108E80B90512108E00800412108ECA82
:101FC300810412108E1F820412108EA0840412103A
:101FD3008E05850412108E11880412108E778804E2
:101FE30012108EB78A0412108EB08B0412108E1D3D
:101FF3008C0412108EB08C0412108E5F8D0412109C
:102003008EBA8D0412108E1B8E0412108E7C8E04D9
:1020130012108E65900412108E57920412108E4384
:10202300950412108E85950412108EE895041210F3
:102033008EFA950412108E6F960412108E2B97044D
:1020430012108E689B0412108E339C0412108E3172
:10205300D10512108E4CD10512108E059205121067
:102063008E1C920512108E0C930512108E5493053C
:1020730012108E72930512108EB4930512108E0BEC
:10208300940512108E4F940512108E9F9405121012
:102093008E77960512108EB1C60512108ED9C6051D
:1020A30012108EF8C60512108E18C70512108E7204
:1020B300C70512108E97C70512108E5AC805121045
:1020C3008E68C80512108E7EE40212108EE7E402B9
:1020D30012108EF7E40212108E31E60212108E04F3
:1020E300E70212108E66E70212108EE1E702121069
:1020F3008EE4E70212108E6EE80212108E87E80259
:1021030012108E02E90212108E47EA0212108EADEF
:10211300EA0212108ECCEA0212108E22EB02121087
:102123008E67EB0212108E9EEB0212108EE6EB020C
:1021330012108EFDEB0212108E9DEC0212108EBD5A
:10214300EC0212108E1DED0212108E8EED02121093
:102153008EF0ED0212108E37EE0212108E73F10222
:1021630012108EBAF10212108E6AF20212108E074A
:10217300F30212108E28F30212108E8BF302121048
:102183008E0DF40212108E1AF50212108E4BF50208
:1021930012108E59F50212108E5CF50212108EF297
:1021A300F50212108E24F60212108E47F602121058
:1021B3008E7CF60212108EC4F60212108EC7F6023F
:1021C30012108ED2F60212108E35F70212108E758F
:1021D300F70212108EB6F70212108E50CB051210B2
:1021E3008E61CB0512108EE2CB0512108E09E50429
:1021F30012108E61E50412108E8EE60412108ED03A
:10220300E60412108E0FE90412108E5EE904121018
:102213008EB4E90412108E2DEA0412108E83EB049F
:1022230012108EE4EC0412108E09ED0412108E6E5F
:10223300ED0412108EF3ED0412108E0080031210C1
:102243008E23800312108E36800312108ED18003EA
:1022530012108E50810312108EBE810312108EA5B0
:10226300820312108E3B830312108EF48303121029
:102273008EAD840312108EA6850312108E72860310
:1022830012108EDD860312108EC28D0312108EFE85
:102293008F0312108E4D900312108EDD90031210D7
:1022A3008EE0900312108EE3910312108E75930348
:1022B30012108EBC950312108E6E9A0312108EC3E9
:1022C3009B0312108ED89D0312108E50A20312107E
:1022D3008E65A20312108EE1A40312108EFAA503D9
:1022E30012108EA9A70312108E84A80312108EE871
:1022F300A80312108E6BA90312108EEBCF031210DA
:102303008ED4D00312108E74D10312108ED7D10342
:1023130012108E98D20312108E49D30312108EC45A
:10232300D50312108E39D60312108E2FD703121035
:102333008EC5D70312108E7DD80312108EB3DC0323
:1023430012108EBEDE0312108EB2DF0312108E1532
:10235300E30312108E34E40312108E24E5031210EB
:102363008EDDE50312108E82E60312108E0EE90352
:1023730012108E9CEA0312108E4AEC0312108E0E7A
:10238300ED0312108EBBED0312108EE2EE0312105A
:102393008EE29A0512108E5D9B0512108EC09B056E
:1023A30012108E6A9C0512108EBF9C0512108E4966
:1023B3009D0512108E609D0512108E429E0512100F
:1023C3008E889E0512108EA49E0512108EE49E0523
:1023D30012108EF39E0512108E019F0512108E2689
:1023E300A30512108EA4A30512108ED7A3051210F5
:1023F3008E9FA40512108E15A50512108EB6A50585
:1024030012108ED6AA0512108EF3AA0512108ED6BC
:10241300AC0512108EABAD0512108ECBFE0212105E
:102423008EDCFE0212108EB7FF0212108E13C3054C
:1024330012108E21C30512108EA2D10512108E4DDB
:10244300CC0512108E5DCC0512108E7DCC051210BA
:102453008E16CD0512108E85B40512108E28B50583
:1024630012108E44B70512108EEEC40512108E1B87
:10247300C50512108E8BC50512108EAFC50512103F
:102483008E00C60512108E7BC60512108E5186056E
:1024930012108E69860512108ED3870512108E2AAC
:1024A300880512108E4E880512108E16890512109B
:1024B3008E6C8A0512108E878A0512108EA78A05E4
:1024C30012108EF58A0512108E0F8B0512108E29AD
:1024D3008B0512108E3F8B0512108E5E8B0512102A
:1024E3008E7F8B0512108EAA8B0512108EFF8B0523
:1024F30012108E88960512108EA1960512108E3634
:10250300970512108E26980512108E829A051210C6
:102513008EACD00512108EAADA0412108EFEDA04E5
:1025230012108ED7DD0412108EACDE0412108EA8AA
:10253300DF0412108E48E10412108E84E30412109B
:102543008E12E40412108E67E40412108E75E404F4
:1025530012108E92E40412108EBBE40412108EE467
:10256300E40412108EF2E40412108EF9F702121032
:102573008E61F80212108E84F90212108ED4F902C1
:1025830012108E00FA0212108E19FA0212108E37F0
:10259300FA0212108EEAFA0212108E03FC021210D3
:1025A3008EC2FC0212108EBDFD0212108E23FE029B
:1025B30012108E77FE0212108E55FE0312108E7EBD
:1025C300FE0312108E92FE0312108EDAFE03121017
:1025D3008E23FF0312108E6CFF0312108ECBFF03AA
:1025E30012108ECEFF0312108EDCFF0312108EED3D
:1025F300FF0312108EBFAD0512108EF9AD05121038
:102603008E63AE0512108E9FAE0512108EE6AE05D8
:1026130012108E18AF0512108E53AF0512108E7D57
:10262300AF0512108EA3AF0512108E07B00512105E
:102633008E35B00512108EC8B00512108EE0B005AD
:1026430012108EF5B00512108EF0D00512108E0DFB
:10265300D10512108E348C0512108ED38D051210F5
:102663008EE08D0512108E0D8E0512108E3E8E0596
:1026730012108E978E0512108EED8E0512108E801D
:102683008F0512108E03900512108E929005121072
:102693008E85910512108E99910512108EAC9105BD
:1026A30012108ECE910512108E24CD0512108E516C
:1026B300CD0512108E7ECD0512108EABCD051210F6
:1026C3008E2DB10512108E54B10512108E7FB105F7
:1026D30012108E24B20512108EFAFC0412108E1DF5
:1026E300FD0412108E2FFD0412108E3DFD041210F6
:1026F3008E66FD0412108E81FD0412108E9CFD0463
:1027030012108EB7FD0412108E30FE0412108E715B
:10271300FE0412108EA6FE0412108EF7FE04121091
:102723008E4CFF0412108E79FF0412108E87FF0463
:1027330012108E9FFF0412108EEDFF0412108EAB49
:10274300CF0512108EF7720012108E407300121014
:102753008E69730012108E82730012108EA27300A2
:1027630012108E0A740012108E44740012108E77A9
:10277300790012108E327B0012108E747B001210BF
:102783008EDE7B0012108E517D0012108E817D0033
:1027930012108E9B7D0012108EAF7D0012108EFFE3
:1027A3007D0012108E687E0012108E7D7E00121046
:1027B3008EDEC90512108EF5C90512108E1CCA05CE
:1027C30012108E40CA0512108E6BCA0512108E9914
:1027D300CA0512108EB8CA0512108EEDCA05121062
:1027E3008E13CB0512108E18D00512108E069F057E
:1027F30012108E1D9F0512108E79A00512108EAE39
:10280300A00512108ED6A00512108E03A10512107A
:102813008E1CA10512108E59A10512108ED6A1058A
:1028230012108E1CA20512108E6EA20512108EA11C
:10283300A20512108EC7A20512108E8ABC051210B3
:102843008EA2BC0512108EC4BD0512108EEDBE05FE
:1028530012108E6BC80512108E0BC90512108E6BE9
:10286300C90512108EAEC90512108EE6FA011210B8
:102873008E08FB0112108E6AFB0112108E98FB0169
:1028830012108EC2FB0112108EE6FB0112108E088D
:10289300FC0112108E2CFC0112108E36FD01121059
:1028A3008E8AFD0112108EA1FD0112108ED1FE0140
:1028B30012108EE5FE0112108E02FF0112108E1F00
:1028C300FF0112108E31FF0112108E0080051210CD
:1028D3008EC3850512108ED1850512108ED1FF028D
:1028E30012108E7ACE0512108EA4CE0512108EC24F
:1028F300FF0112108E5CD10512108E84D1051210C7
:102903008E2FAD0412108E4DB20412108EF92E00CC
:1029130012108EE72E0012108E57E40212108E3919
:10292300E40212108E05E30212108E62E20212100C
:102933008E15E10212108EC0DE0212108E56DE02D8
:1029430012108E0EDE0212108ECC330012108E1473
:10295300330012108E80DD0212108E73DD0212100E
:102963008E64320012108E13320012108E6DDA0252
:1029730012108ECFD70212108E98D60212108EEC40
:10298300D50212108E32D40212108EE2D10212102E
:102993008E69D10212108E10D10212108EA0D002B5
:1029A30012108E77D00212108E57CE0212108E2381
:1029B300CE0212108EF0CD0212108ED4CD02121060
:1029C3008EEDCC0212108EA5CC0212108EF0CA022C
:1029D30012108E70CA0212108E6DCA0212108E6E01
:1029E300C90212108E3CC90212108E79C80212104D
:1029F3008EA4C60212108EEC310012108EA8310084
:102A030012108E6D310012108E47310012108E2E6F
:102A1300310012108E35C60212108E07C602121034
:102A23008E04C60212108EF1C50212108EDA300027
:102A330012108E9CC50212108E8BC50212108E7D51
:102A4300C40212108E47C40212108E3630001210C8
:102A53008EE7F10312108EF5C30212108E96C30295
:102A630012108E65C30212108E2DC00212108EED4D
:102A7300BF0212108EE1BF0212108E41BF0212106C
:102A83008E81BE0212108E03BC0212108E94B90204
:102A930012108E52B90212108E26B80212108EDB5B
:102AA300B70212108E1AB70212108EEDB602121070
:102AB3008E30B60212108EC6B50212108E00B60208
:102AC30012108EAC2F0012108ECCE8010000008093
:102AD300FBE473000136360101000102010001032A
:102AE3000100010401060605020000070100340885
:102AF30001000F090401010D0100FF0E080000177A
:102B0300020000190100FF1A0100011B0100FE1C55
:102B13000100081D0200001F010001200100012126
:102B23000200002301000F240200002601000127F8
:102B3300010008280200FF2A0100072B0102402C94
:102B43000100002D0100012E0100012F0100FF30C3
:102B5300010B1C310800003A0100083B01000F2F54
:102B630001000003027102300160021102700201D0
:102B730002020202028002100261023A0041006373
:102B8300027302720262024302000213023800005F
:102B93000200020402120200020002000200020408
:102BA300020402370037003C0244020002390000ED
:102BB3000200026502000235028102000205028260
:102BC30002830200020300710030016000110070F3
:102BD3000031022003500480001000610000001443
:102BE30000630073007200620043000000130006DC
:102BF30000000000000400120000000000000000BC
:102C03000004000400370037003C024400000000C9
:102C13000000000000650000003500810000000591
:102C23000000008300000003047104020460041127
:102C33000470040204020401040204100461040089
:102C4300041404630473047204620443040004134D
:102C53000406040004000404041204000400040035
:102C6300040004510464000004000400044404004C
:102C730004000400040004650400043504810464B2
:102C8300000504000483040004010371030103012C
:102C930003010301030103220302030103100300E1
:102CA30003000300030003000300030003420300C7
:102CB3000324030603000300030403120325032371
:102CC3000325032303040304030003000300034455
:102CD300030003000323030003650321003503817D
:102CE3000300030503000300030003010171010155
:102CF30001010111010101310101010101800110F3
:102D03000161013B0014006301730172016201431D
:102D1300010001130106013D013500040112010008
:102D23000100010001000104010401330133013CEE
:102D33000144013201360000010001650100013543
:102D430000810100010501820183010001360001B8
:102D530000060000000F000000000000000000005B
:102D630000000003FFFF00000403FFFF0000FFFF5C
:102D73000FF4010005C4040320000100000B000050
:102D830000000000000003010F000037231300AD13
:102D930022010037230200652203006B2204007125
:102DA3002205007722060083221100A1221400A726
:102DB3002215009522FFFF000001651606951608EF
:102DC3008F160BA11610E115026B160583160771FA
:102DD300160C47160D5916FF000003EAF5E5D5D585
:102DE300C5B5A59595858575756565555545453570
:102DF3003525251515056D1A9D1A731A791A971A13
:102E03008B1A851AA31AA91AAF1ABB1A7F1A671A43
:102E1300611A00160F00000B150B020002220F327D
:102E23000000065D1B6F1B751B371A7B1B311A3D98
:102E33001ABD1BDB1BE11BC31BCF1BC91B71196B0A
:102E430019A719AD19A11959190001191618161640
:102E5300152303000C0E020B040B0A0708000F00D6
:102E6300034948424D18172505023030161819201A
:102E7300231A1C1E30303017181921301B1D1F3028
:102E830000383C3E363B3B352B432CB11B811B8723
:102E93001B931B8D1B911AB51AD51BC11AC71A0296
:102EA30004020101010109027D1983197719B3197C
:102EB30000000000000089199B1900BE040A1500D8
:102EC3007F00E8030C00280000000E00000003014F
:102ED3000C08100C0A03080900040005FF1E1E0855
:102EE3000004090FC082C0838A828B83E0D2E7F09B
:102EF3001221930240B6C082C08379001233B31209
:102F03006283C082C083900334125009D083D0827D
:102F1300C3E09CA3E09D500C126957FAA3E0122F63
:102F23002A6001090240B6FBEA75F00BA4FAA8F087
:102F330075F00BEBA428FB900336E02AF8A3E03BE3
:102F43008882F583E0540F2274F7120A6489081209
:102F530033B3123459ACF075F00BE9A42CF9900398
:102F630036E028FEA3E039FF7401650860067402A9
:102F7300650870208A828B831234451242E57402FD
:102F83006508701B12330412348C70138E828F8386
:102F9300E4F0800BEA2403FCEB123427123433EE03
:102FA300FAEFFB12291302424274F4120A641272FA
:102FB3007E79008E828F83E06076890A890B806533
:102FC300E50A75F00BA4FAA8F075F00BE50B122FC8
:102FD300377046E50A75F00BA4F8AAF075F00BE517
:102FE3000B12346B8E828F83E085088285098312EE
:102FF300354D850882850983A31242E5EE2403FC3F
:10300300EF1234301240C3125CFDAA08AB09122937
:10301300137901900334125712E50A2401F50AE5E6
:103023000B3400F50B12330CE50A9AE50B9B409029
:1030330002448F74F5120A64EAFEEBFF740B121359
:10304300B21240C8750A01EC4D602BEC12729AED76
:103053001262831242DD7901121E63E5084509609D
:103063006F850882850983A31272887902AA08AB47
:1030730009121E63805AE5084509602B1262871204
:1030830049511240C4123476700CEEFAEFFB122A47
:10309300C3E9F50A80CBEE2403FA1233AE7031791B
:1030A30003EEFAEFFB80CA8E828F83A3E064FE7087
:1030B30003A3E0F4700BEE24030A0A0A1233AE7082
:1030C3000CEEFAEFFB122AC3E9F50A8003750A0036
:1030D300A90A7F03020E0274F7120A6490033412E2
:1030E3004252EA4B602FEA75F00BA4FAA8F075F090
:1030F3000BEBA428FBEAFEEBFF121FAD9003361285
:1031030042529003361255576012EEFCEFFD7900E0
:10311300121EE18007900336E4F0A3F002424290CE
:103123000334124CC1C3EE98EF9922C082C083ECE2
:103133004D600512286580097C087D007900121E08
:10314300E10240B674F6120A647900EA4B6018781B
:103153000088081265CAEB12695360047901780884
:1031630008E8C3940840EA0242EE74F7120A647452
:10317300F3121170ECFEEDFF851882851983E4F0DC
:10318300041213B2EAF0A3EB125A8374031213B2BC
:10319300AC82AD83EEFAEFFB122A0FEEFAEFFB12CD
:1031A3002A0902423D74F7120A6474F3121170EC97
:1031B300FEEDFF851882851983E4F0EAFCEBFD74CC
:1031C300031213B212354674011213B21242D98E8E
:1031D300828F831242E574FE68700374FF69600492
:1031E30079018002790002423D74F7120A64EAFE13
:1031F300EBFF12324A70141232558E828F83E0F441
:10320300F88A828B83E058F0122913A908024242FC
:1032130074F7120A64EAFEEBFF7508008E828F834F
:10322300E0602212324A701D1232558A828B83E08B
:103233008F838E82F8E058700CE0F88A828B83E0EB
:1032430048F012291380C412290DE9F508740165A9
:10325300082212729312345D12339FFAA3E039FBF2
:103263002274F4120A648A088B097C007D001233ED
:10327300041234331233C4127285790085088285AF
:103283000983A3E064FE7003A3E0F460717E007F12
:10329300008062EEFAEF122F2A6057EEFAEFFBEA94
:1032A30075F00BA4FAA8F075F00BEBA428FB9003C0
:1032B30036E02AF50AA3E03BF50B850882850983EE
:1032C300A31259D1850A82850B83A3E06A7003A3F5
:1032D300E06B701EE50A2403FAE50B1233AF700AA4
:1032E300E50A2403FCE50B1234301233B8790112DA
:1032F3006299123CA312330CEE9AEF9B4095024461
:103303008FEA24030A0A0AEB22900334125E70C385
:103313002274F3120A648A088B098A828B83A312AC
:1033230072881233B3127285750C00123304123390
:10333300AF70547E007F008049123391FAA3E039C5
:103343008A82F583E0540F6036123391F50AA3E0C5
:1033530039F50BE50A2403FCE50B12343A3400FB80
:1033630012285FE964017017850A82850B83A31213
:103373005F31A31242E51233B8750C011262991240
:103383003CA312312240B2A90C7F05020E02EEF8D3
:10339300EFF9E875F00BA4F812339F22AAF075F049
:1033A3000BE9A42AF9900336E02822EF123486228F
:1033B300127299EB221233C4126294EEF0A3EFF06F
:1033C30022E50812729AE5092274F5120A64EAFEEC
:1033D300EBFF8E828F83A31272887C007D00EE2424
:1033E300030A0A0AEF123433EEFAEFFB12290DE94E
:1033F300F50A7401650A7029127293123459AAF0FE
:1034030075F00BE912346B850882F583123445128B
:103413003476700DE5082403FCE5091234271234D1
:10342300330230D33400FDEE2403FAEF2212343A90
:103433003400FB122A0F223400FDE5082403FAE5C9
:103443000922A312344A2212344E22E0F8A3E0F9EF
:103453008E828F83A32212345D223400F583124CB3
:10346300C5E875F00BA4F8221233A5F508A3E039DB
:10347300F50922E8F0A3E9F0E5082403FAE50912C7
:1034830034862212348C6401223400FB122A09E9A7
:103493002274F3120A6474E612117012727E750CB0
:1034A30001750800750900750A00750B00851882FF
:1034B300851983E4F0EE2403FCEF3400FD7403125A
:1034C30013B2123546E964017023740B1213B2125E
:1034D30042DD74011213B21259D57003A3E069607F
:1034E30051851882851983858208858309740D1295
:1034F30013B2E412354D740E1213B21242E5740D79
:103503001213B2AA82AB83122961E96401700B74AE
:103513000D1213B285820A85830B780A1210C7AC89
:1035230008AD09EEFAEFFB122A4B740212110FE9F0
:10353300F50CEEFAEFFB122967A90C741A12110F9E
:1035430002338C12381912294F2212424D124CC1E8
:1035530022C082C08378007900800312364412337C
:103563000CE89AE99B5029E8FAE9FBEA75F00BA409
:10357300FAACF075F00BEBA42CFB900336E02AFCBD
:10358300A3E03B8C82F583E0540F70CF7900800277
:1035930079010240B6C082C083902EC1124D17EC50
:1035A30075F012A4FCA8F075F012EDA428FD79FFC4
:1035B3007A897B0B121EE10240B674F7120A64E9A2
:1035C300FEEAFF7A007B00780079008028E8FCE9B6
:1035D300FDEC75F012A4FC85F00875F012EDA4253E
:1035E30008123A59C39E400AE0FCEFC39C40031201
:1035F3003B78123644123A4D40D3024242C082C055
:1036030083780079008003123644123638501F1233
:103613003A5DF470F2E875F012A4F8AAF075F012AE
:10362300E9A42AF9748928FA740B39FB80047A0017
:103633007B000240B6902EC1123B0EC3E89AE99B71
:1036430022E8240108E93400F92274F0120A6474B0
:10365300F31211708A0A8B0B8C0C8D0D8908EC45C3
:103663000D6016AA0CAB0D1214018A0E8B0FAE0E51
:10367300AF0FEE4F600302370B1213D78A0E8B0F77
:10368300A80EA90FE8FEE9FFE849607C902ECB1253
:10369300376D60227403650860067404650870164C
:1036A3007A0479031213D1902ECB12378440077A10
:1036B300007B0002376A902ECF12376D601B7401B6
:1036C3006508600674026508700F7A0279011213A7
:1036D300D1902ECF12378450D685188285198374E2
:1036E30001F01213B2125CFDAC0CAD0D7403121396
:1036F300B2123812740B1213B21240D01246C5E440
:10370300125CE51218B18004EE4F604A780074FF32
:103713002508C39404500278048E828F83125CFDC3
:103723008E828F83A3A3A3A3E508F0E88E828F8301
:10373300A3A3A3A3A3125D0512080C123B258E823B
:103743008F83A3A3A3A3A3A3A3F0123B1C121387EA
:1037530012627D12137B12377240059010E5E4F07C
:1037630012178BEEFAEFFB024CCB125E1F49227A43
:103773000479001213D1902EC1126939EA98EB999A
:103783002212379D75832E7582C1E493C398F8A3E3
:10379300E49399F9C3EA98EB9922E493F8740193BB
:1037A300F92274F2120A6474F31211708A088B09F5
:1037B300ECFEEDFF750A00EEFAEFFB1214018A0C22
:1037C3008B0DA80CA90DE849603E88828983E065CA
:1037D300087004A3E06509602F88828983A3A3A3EB
:1037E300A3E0C39405502112612B851882851983A8
:1037F3007401F01213B212612FEEFCEFFD74031289
:1038030013B2123812750A01A90A740D0257C912AC
:103813003819121EE722AA82AB83122A0F85188257
:10382300851983AA82AB832274F6120A641238675D
:10383300600FA3A3A3A3E014C394045004790180ED
:103843000279000242EE74F6120A64123867600FBE
:10385300A3A3A3A3E014C3940250047901800279C3
:10386300000242EE1213FB8A828B83E58245832298
:1038730074F6120A64123867600BA3A3A3A3E07063
:10388300047901800279000242EEC082C083EAFC1F
:10389300EBFD7A007B000240B3C082C0837C007DD5
:1038A300000240B374F4120A6474F3121170EAFE56
:1038B300EBFF8C0A8D0BC3EC94F8ED94FF4007EEFD
:1038C3004F7003023960750800750900802E851852
:1038D300828519837401F0123CCB1213B2123CD9C6
:1038E300601374031213B2AC82AD83EEFAEFFB12D2
:1038F300285FE97049E5082401123AF9902EC1E4E2
:10390300125E27E50898E509995052E50875F0120B
:10391300A4F8AAF075F012E509A42AF912696C60FB
:10392300D4EE4F70A974FF650A700474FF650B60D1
:10393300C4123CBB650A7004A3E0650B70B7E508CD
:1039430075F012A4F508A8F075F012E509A428F59E
:103953000974892508FA740B3509FB80047A007B06
:103963000002448A74F4120A6474F3121170750825
:10397300001214018A0A8B0BAE0AAF0BEE4F602ABA
:103983008518828519837401124247F8A3E0F974FC
:103993000B1213B21243681229F77C127D0079FFD0
:1039A300EEFAEFFB121EE17508011237725009900F
:1039B30010E57401F012178BA90802448A74F712F8
:1039C3000A64E9FE74FE6A700374FF6B7800790081
:1039D30070058052123644123A4D504AE8FCE9FD14
:1039E300EC75F012A4FCAFF075F012EDA42F123AAF
:1039F30059F460E0E8FCE9FDEC75F012A4FC75F005
:103A030012EDA42FFD74892CF582740B3DF583E030
:103A13006A7003A3E06B70BC8009123A5D14C3940F
:103A23000440171236441236385018EE70EC123A2E
:103A33005D64016005E0640370E9123CACFAA3E045
:103A4300FB80047AFE7BFF024242902EC1124D1B83
:103A5300C3E89CE99D22123BAD22E8FAE9FBEA7533
:103A6300F012A4FAACF075F012EBA42CFB748D2ABF
:103A7300F582740B3BF583E0221214130240B6C0A7
:103A830082C083790180F274F0120A648A0A8B0B74
:103A93007A0479011213D18A0C8B0DEA450D603E2D
:103AA300EAC333FAEB33FB121FAD8A088B09AE0866
:103AB300AF09EE4F60237AFE7BFF12141974FE6A7E
:103AC300700374FF6B601B85088285098312425261
:103AD300E5082402123AF980E1750C0080047E00A7
:103AE3007F00850A82850B83E50CF0EEFAEFFB027B
:103AF3004CD0E5082407F508E5093400F5092290C0
:103B03002EC1124D1BC3EA9CEB9D22E493FA740170
:103B130093FB22121ED574032212628EE4F090836B
:103B23004622E88E828F83A3A3A3A3A3A3A3A312F6
:103B33003B477401123B47A3F0EE2410126291E459
:103B4300F0A3F0221246D1A3A3A322C082C0837A9A
:103B5300007B00800419123B78123B025010123B89
:103B630097C3940550F0E970EC123B8180047A000E
:103B73007B000240B6EA24010AEB3400FB22EA751B
:103B8300F012A4FA75F012EBA428FB74892AFA74D4
:103B93000B3BFB22EAFCEBFDEC75F012A4FCA8F056
:103BA30075F012EDA428123BAD22FD748D2CF58225
:103BB300740B3DF583E02274F7120A6474F3121157
:103BC300707E007F00023C5FE50875F017A4F8A93A
:103BD300F0126BCDFAA3E0FBEEF8EFF9E875F01203
:103BE300A4F8ACF075F012E9A42C123CBA6A700385
:103BF300A3E06B603FE50875F017A4F8AAF0EA129A
:103C03006BCCF8A3E0F974011213B2E0687003A35C
:103C1300E0696020E50875F017A4F8EAF97405284F
:103C2300FC740D39FD74031213B2AA82AB831228FC
:103C33005FE96014E50875F017A4F8A9F074032888
:103C4300FA740D39FB1218BD0508902ED5E493F8CC
:103C5300E508C3985003023BCB123CA3902EC1123C
:103C63006F135039EEF8EFF9123CACF47003A3E094
:103C7300F460E68518828519837401F0EEF8EFF994
:103C8300E875F012A4F875F012E9A42AF9123CCBF6
:103C93001213B2123CD960C175080080AD02423DD7
:103CA300EE24010EEF3400FF22E875F012A4F8AA07
:103CB300F075F012E9A42AF9123CBF22748928F5A1
:103CC30082740B39F583E022748B28F582740B39E7
:103CD300124CBF740B22E8F0A3E912437012294976
:103CE300E922C082C08390033D747DF0A37416F073
:103CF30090033F7477F0A37416F09003437497F026
:103D0300A37414F00240B674F7120A64EAFEEBFFE0
:103D1300900377E06408601BE0640460168E828F72
:103D230083E05403640170481240C31247C6E06441
:103D330006703D8E828F83A3A3E064FE7003A3E02D
:103D4300F4602D8E828F83A3A31242D9900368E07F
:103D5300687003A3E069700BEE2415F582EF126916
:103D630053600812172BE9F508800812173180F603
:103D73007508C2EEFAEFFB121FB302320E74F4128F
:103D83000A648A088B098A828B83E0F8A3E0FAE845
:103D93002AFAE43400FB121FAD8A0A8B0BAE0AAF7A
:103DA3000BEE4F6063850882850983E0FC7D007913
:103DB30000121EE18E828F83A3A312728812176DE5
:103DC3008E828F83A3A3A3A31242528508828509FF
:103DD30083E0F8EE28F8EF34001242E1850882858B
:103DE3000983A3E0C0E0EE240D126280D0E0F0125C
:103DF300177FEE240E126280E9125932E0C0E0EE22
:103E03002411126280D0E0F0EEFAEFFB02448F74CB
:103E1300F4120A6474EB1211708A088B098C0A8DF0
:103E23000BE9FE900377E064046005E06408700426
:103E330079C2802EA37808121323EE90037E1240DA
:103E4300BD12132374051213B2E9F074041213B2F2
:103E53007401F074071213B2E4F090037774021242
:103E63004051741502448C74F6120A6474EB1211F7
:103E730070EAFEEBFF1255546003023F0E7A077B94
:103E830000121FAD90033912425212555460788EBE
:103E9300828F8312138790033A1247C912137B123E
:103EA300714CC0E0123F1AD0E0F0EE2405FAEF3473
:103EB30000FB8A088B098A82F583E0C0E0123F1574
:103EC300D0E0124486E0C0E0123F15A3D0E01242D6
:103ED300C612138785188285198312137B888289FA
:103EE30083E0C0E074051213B2D0E0F08508828548
:103EF3000983E0C0E074041213B2D0E0F074071237
:103F030013B21240508006791080027901741502B1
:103F130042EB123F1AA322900339E0FAA3E0F583A0
:103F23008A82A3A3A3A322C082C083125554600D27
:103F3300900339125E5E900339E4F0A3F012169BEE
:103F430012185D0240B674F0120A6474EB12117019
:103F5300ECFEEDFF890874251213B2780C1213508E
:103F630074291213B2E0F9742A1213B2E0FC742B11
:103F73001213B2E0FD740F697005740F6C60129038
:103F83001140E06402700579C102404BE9C39C40D3
:103F9300F6900378780C121323E50890037EF0E97A
:103FA30090037CF0ECA3F0ED90037FF074FF6A7054
:103FB3000374FF6B701D90114BE0F47003A3E0F4E6
:103FC3007005121EF9800C90114B12421AE8F0A3EF
:103FD300E98007900375EAF0A3EBF0EE4F6017EE6C
:103FE300FAEFFB12191DE96401700BEEFCEFFD7A89
:103FF300897B03122865900368E4F0A3F090036BB8
:10400300F0A3F0900388F0901140E06402700890F0
:10401300037C740FF0A3F09003777405F01412136C
:10402300B2E4F090037812138785188285198312FE
:10403300137B90037EE0C0E074051213B2D0E0F06E
:1040430074071213B21240507415024CCDE412439C
:104053007012289522C082C083900338E070031247
:10406300229B121461804CC082C083900338E0907D
:1040730010E47004E4F0802D7401F0900338E0F450
:1040830060237C41E0C394415002E0FCECF8E0C3C0
:1040930098F0EC75F0E8A4CCA8F075F003A428FD23
:1040A3007A80124D237AE47B10794112287D8003B4
:1040B300121407D083D08202108B1242D1780822C7
:1040C300EE12628F22E0F508A3E0F509221240D434
:1040D3002212344EA32274F5120A6474E212117090
:1040E300851882851983ECF0A3EDF0EAFEEBFF89D6
:1040F3000874291213B2E0F509742C1213B2E0F517
:104103000A900377E064046005E06408700579C2EF
:1041130002420B742A1213B2E064FE7003A3E0F4AC
:10412300700579C302420B900377740312436C79D1
:104133005012287D742A1213B2AA82AB83794B12D0
:10414300287D85188285198312421A1242E5E508F3
:1041530090036AF0742A1213B21242131242E5E575
:104163000990036212422174CE55094480C0E07461
:10417300121213B2D0E0F07401250A900388F07490
:104183000F1213B27402F0742A1213B21242D974CA
:10419300071213B2E8F0A3E912425874101213B2D3
:1041A3001242E574051213B2E508F0741B1213B240
:1041B300E4F090037D740FF07A7D7B037954122829
:1041C3007D90037C740FF07A7C7B03794712287D02
:1041D30090037CE0C3940F502374051213B2E0C024
:1041E300E074021213B2D0E0F074041213B274013B
:1041F300F0041213B2AA82AB831228A1740512131E
:10420300B2AA82AB83122883741E12110F0230D517
:10421300124CC190036B22124CC190037522F0EE35
:10422300FCEFFD7A897B031228652274F7120A6476
:10423300EB90037FF01216898005740D12110F7F26
:1042430001020E0212424DA3E0221242C6A322EA49
:10425300F0A3EBF0221242CCF8A3E0F92274F71298
:104263000A6474F8121170EAFEEBFF790090037789
:10427300E06408704485188285198374FDF0A37483
:10428300FFF012176774021213B21242527405122E
:1042930013B2E412424DE0C0E074041213B2D0E052
:1042A3001242C1C0E074061213B2D0E0F0740712D8
:1042B30013B2E412436C1217A9740802423F12426C
:1042C300C6E022F08E828F83221242D1E022F08553
:1042D300188285198322124CC122E0F8A3E0F91257
:1042E300628EE8F0A3E9F02212110F7F02020E02A0
:1042F300C082C0839003497427F0A37415F0900320
:10430300EF7403F0A37418F090034D745DF0A3747D
:1043130015F090034F7427F0A37415F090035174B4
:1043230063F0A37415F00240B674F4120A6474F9CE
:104333001211708A088B098C0A8D0B8518828519D6
:1043430083780812132374041213B2E9F07405126C
:1043530013B2E4F074061213B2E412436C1214495C
:10436300740702448CE8F0A3E9124370221242D18D
:10437300AA82AB832274F4120A648A088B098A82A4
:104383008B8312629CEE4F700302448490031212DB
:10439300555760158A828B83A3A3E0F9EEFAEFFBEE
:1043A3009003131247C9122AD48E828F83A3A3A327
:1043B300A3A3A3A3A3A3E0640270748E828F83A339
:1043C300A3A3A3A3A3E05402700302445685088267
:1043D300850983A3A3E064E960798E828F83A3A315
:1043E300A3A3A3A3A3A3A3A3E07014901143E00486
:1043F3008E828F83A3A3A3A3A3A3A3A3A3A3F08EBC
:10440300828F83A3A3A3A3A3A3A3A3A3A3E01412B1
:104413004486A3A3A37404F0901144125CD7E8F07C
:10442300A3E9126DB08B0BEA450B700312678E8EF6
:10443300828F83A3A3A3A3A3A3A3A3A3E064026084
:10444300128E828F83A3A3A3A3A3A3A3A3A3E06436
:1044530006702E8E828F83A3A3A3A3A3A3E0A2E05F
:10446300501F850882850983A3A3E0F9EEFAEFFBC9
:104473001229B58E828F83A3A3A3A3A3A3E054FE23
:10448300F080091246CD22740D12110F7F04020E23
:104493000274EC120A6474DD121170EAFEEBFF8CF5
:1044A300088D0974371213B2780C121350750A0071
:1044B30074051213B2AC82AD83122937741212132E
:1044C300B2E0700874151213B2E060207405121381
:1044D300B2E0A2E6501E8E828F83A3A3A3A3A3A35D
:1044E300A3A3A31259D11217DFE960087903122895
:1044F3004D0246B374051213B2E0540C6404700504
:10450300750B018003750B00E0A2E55035750A01B8
:10451300E50BA2E0402C12176D8A108B11A810A98D
:10452300111240C3E0687003A3E0696015740512BB
:1045330013B212728F1259CD1229C1E960047904A2
:1045430080AC74051213B2E0A2E650227406121373
:10455300B2E05403701874051213B2E0540C640CE7
:10456300600CE0540C64086005751001800375103D
:104573000074051213B2E05403F8740268700C124D
:10458300728F1259CD1229250246B3740168703A0D
:10459300E510A2E050031246BB74051213B2A882C1
:1045A300A98374031213B2E8F0A3E9124CB585187A
:1045B300828519831246C5E0C0E074021213B2D09B
:1045C300E012436C122AA50246B3E860030246B325
:1045D30090035FE0640170108E828F83A3A3A3A373
:1045E300A3A3E0700302454174221213B2740212B2
:1045F3004CB5741A1213B21242E5E510A2E050084A
:1046030074051213B21246BBE50BA2E0506AEE2406
:104613000FF582EF126953C0E074171213B2D0E0A2
:10462300F090031412555770030246B312176D8AA4
:10463300128B13A812A913741A1213B2E068700331
:10464300A3E069706B780C1210BF780A1210CB7854
:10465300081210C7A910740C1213B2AC82AD837484
:10466300211213B2AA82AB839003141247C6122AF3
:10467300D4740712110F8038780C1210BF780A1205
:1046830010CB78081210C7900375120EC1EE2412D6
:10469300F582EF12668174231213B2AC82AD837478
:1046A3000E1213B2AA82AB831229A9740912110F35
:1046B300742312110F026D7B12728F125E6C12291A
:1046C3003122E8F0A3E91246CD221246D122F08E20
:1046D300828F83A3A3A3A3A3A32274F7120A641252
:1046E300214B02424274F7120A64122151024242E0
:1046F30074F7120A6412215D024242C082C083121F
:1047030021570240B674F7120A641221630242422F
:1047130074F7120A6474091213B2E0F508780812E8
:1047230010CB12216F740102423FC082C083122159
:104733007B0240B6C082C0831221810240B674F767
:10474300120A6412218702424274F7120A64EAFED3
:10475300EBFF8908740165087014790012159F90A6
:104763002EE0E493FC7900EEFAEFFB1215150242FA
:104773004274F4120A6474F9121170E9FE8A088B08
:10478300098C0A8D0B74131213B21259D19007FBC3
:104793001255576027EE851882851983F07401122C
:1047A30013B27808121323EAF8EBF974051213B263
:1047B3001243689007FB1247C6122AD4024363FBD5
:1047C30090034BE0F8A3E0F583888222C082C08384
:1047D3001221BD0240B674F7120A649010E7E0F9A3
:1047E3007E00800B12693F540D64017001190E1293
:1047F30049D35003E970ED02424274F7120A649000
:1048030010E8E0F97E00800B12693F548D648170DB
:1048130001190E1249D35003E970ED02424274F2BA
:10482300120A64890BE975F006A4240CF508E5F077
:10483300123AFD8A0CE508250CFAE5093400FB124F
:104843001FAD8A0C8B0DAE0CAF0DEE4F6027AC087D
:10485300AD097900121EE11240C3E50BF0EE250805
:10486300F8EF3509F98E828F83A3A3A3A3A3A3A390
:10487300A3A31242E5EEFAEFFB0257CC74F6120A39
:1048830064EAFEEBFF1214F19010E6E0F8E9C39836
:1048930040099003451259D11214F7EE2402F8EFA0
:1048A300125FE1900347125E9B900347E004F0EE32
:1048B300FAEFFB1214FD850882850983E0026497F1
:1048C300C082C08379009003458001091259D18ABF
:1048D300828B83E582458370F20240B674F7120A35
:1048E30064EAFEEBFFEE4F605690034512555760A6
:1048F3004E888289837A007B00EE65827003EF65C0
:1049030083600FAA82AB83124945E5824583602FFA
:1049130080E7900345124951687002EF698E828FD8
:104923008370081242D99003458003126D8D1242A1
:10493300E5EEFAEFFB122A75EEFAEFFB121FB30254
:10494300424212494922124CC58882898322124C61
:10495300C1EE22C082C0839003458004888289838C
:10496300125557600B88828983125009EC4D70EC05
:104973008A828B83E4F0A3F0E84960068882898306
:1049830080039003451242520240B674F7120A6440
:1049930090034580048A828B831249CE4B60257E27
:1049A3000080010E1249D350ECEE75F006A4FCAD65
:1049B300F0EA2CFCEB3DFDEC2410F582ED124A23CA
:1049C30070E180047A007B00024242125E70EA22A8
:1049D300124A2CEEC3982274F7120A647D008001F8
:1049E3000D124A28EDC3985034ED75F006A4FEA8C5
:1049F300F0E8FFEA2EFEEB3FFFEE2410F582EF1204
:104A03004A2370DCED75F006A4FEE8FFEA2EFAEB0C
:104A13003FFBEA2411F582EB1269534CF002424248
:104A230012695F6922124A2C22127299EB3400F543
:104A330083E0F82274F6120A641216177A007B00D8
:104A43008025EAF8EBF9E875F006A4F8ACF075F008
:104A530006E9A42C125E4512715AA3E4125F3BF0DF
:104A6300A31271601272D7902EC712377C40D37A8B
:104A7300007B00801C8A088B09740378081212AF2C
:104A83001258F9A374FEF0A304125D1BA3E412727F
:104A9300D7902ED4124AD640DC7A007B00801D8A40
:104AA300088B09740378081212AF742B1265CB7448
:104AB30010126E1274FEF0A3041272D7902EDA1243
:104AC3004AD640DB902ED2E493900353F0124AE08F
:104AD3000242EEE493F8C3EA98EB9400227CE87D6B
:104AE300037A107B009003C2E0F91220792274F05C
:104AF300120A6474F51211708A088B09890A8C0BE7
:104B0300E9A2E050147508FC7509FFA2E15005D233
:104B1300E4024BB3D2E3024BB31257B87003A3E0E2
:104B23006970057900024C80AC0A7902AA08AB09C6
:104B33001215F3E960EDE50AF50C780C1210CB7948
:104B4300027CFE7DFFAA08AB0912553312110FE94F
:104B53006003024C7EE50AC2E5F50A9003B5E070F6
:104B630051E50AA2E6404B74031213B2AC82AD8343
:104B7300AA08AB09122A03E97032124E548A0C8B2D
:104B83000DA80CA90DE8FEE9FFE8496025EE240213
:104B93000A0AEF12348C601AEE2402FCEF3400FD93
:104BA30074031213B2AA82AB83122865E50AD2E515
:104BB300F50A900348E0F50C900368E0F50EA3E0D6
:104BC300F50F780E1210C77D017C00900348E0F9C1
:104BD300AA0EAB0F1215AB740212110FE9F8900372
:104BE30048E004F0E86003024C7EE50AA2E55004C5
:104BF300740E80027406C0E074011213B2D0E01286
:104C030062AD8A0E8B0FAE0EAF0FEE4F6069124C82
:104C13009E124CB5888289837401F07478550AA377
:104C230012729FE50C12729FA3E508F0E509124C7E
:104C33008DE4F0E50AA2E5500F74031213B2AC82BF
:104C4300AD83E82406124C848E828F83A3A374FD64
:104C5300F0A374FFF0E50B6015902EE1E493F8E503
:104C63000BC3985009EE2413126280E50BF0EEFAA1
:104C7300EFFB12143780067910800279C7740B801A
:104C830049FAE93400FB1228652288828983A3A3A9
:104C9300A3A3124C9922126014A322EE24171262CA
:104CA300917401F0121767EE241A126291EAF0A3CD
:104CB300EB22F01272933400124CBF22F583124C94
:104CC300C522E0F8A3E0F922740D12110F7F080248
:104CD3000E0274F6120A647A007B1012679B600856
:104CE3009003D47401F0802990089CE06401901132
:104CF300417006E0FC79018004E0FC79037A007BD3
:104D030000121515902EC5124D177A007B10124D07
:104D1300250242EE124D1B22E493FC740193FD2203
:104D23007B009003C2E0F91220732274EC120A6430
:104D33008A088B098C0C8D0D890E74141213B21210
:104D4300571274161213B2E0F510A3E0F5111217FF
:104D5300DFE960077AFF7BFF024E51901140E06468
:104D6300026003024E447900AA08AB091215F9A99F
:104D73000E1215ED8A128B13AE12AF13EE4F7003A2
:104D8300024E2C8E828F83A3A3A3A3A3E064018E80
:104D9300828F83A3A370691259D18E828F83A3A3B9
:104DA300A3A3A3A3E054186043902EDFE4938E8261
:104DB3008F83A3A3A3A3F0EA650C7003EB650D60D7
:104DC30014EA650A7003EB650B600AEA6510700369
:104DD300EB6511701F78101210C7AC0AAD0BAA0C4B
:104DE300AB0D1218DB740212110F800890036712C7
:104DF3006785A3F074FE6A700374FF6B601D804EB9
:104E0300A3A3A3E0640360298E828F83A3A3A3A338
:104E1300A3E0640470057AFE024D598E828F83A34A
:104E2300A3A3A3A3E0640270089003B4E064027038
:104E330010124E548B0BEA450B6006AA08AB09808F
:104E43000DAA08AB099003491247C6122AD4026D72
:104E53007B90037512553912189F2274F7120A6456
:104E6300EAFEEBFF1213E9E9700AEEFAEFFB121305
:104E7300F5E96006EEFAEFFB80047AFE7BFF02425F
:104E83004274F0120A648A0A8B0B8C0E8D0F890907
:104E93007508001217DFE979006003024FFBAA0AC5
:104EA300AB0B1215F9A9091215ED8A0C8B0DAE0C7B
:104EB300AF0DEE4F60198E828F83A3A3A3A3A3E04C
:104EC300640270559003B4E064027003024FF9AAC0
:104ED3000AAB0B90034F1247C6122AD41213FB8A54
:104EE3000C8B0DA80CA90DE8497003024FF98882B9
:104EF3008983A3A3A3A3A3E0A2E04003024FF97510
:104F03000C01A2E150687901AC0AAD0BAA0EAB0FFC
:104F1300121545E97064024FF98E828F83A3A3A310
:104F2300A3A3E064037005750C0280528E828F8305
:104F3300A3A3A3A3A3E064016003024FF990037545
:104F43001250098E828F8312535E8A0C8B0DA80C2C
:104F5300A90DE84960D1902ED8E493FA8882898319
:104F6300E0C39A50C2A3E06003024FF980B988827C
:104F73008983A3A3A3A3A3D2E1F0EE4F603A8E8269
:104F83008F83A3A3A3A3A3A3E05418602B750801E5
:104F93008E828F83A3A3120EC1750CFE750DFF784D
:104FA3000C1210C77900AC0AAD0BAA0EAB0F121688
:104FB3000B740412110F803E900368E0650E7004B9
:104FC300A3E0650F7014902EE0E493FCA909AA0AEC
:104FD300AB0B121515750801801CA90CAC0AAD0B9F
:104FE300AA0EAB0F121545E9700C750801A909AAA1
:104FF3000AAB0B12159FA908024CD0E50C2415F53A
:1050030082E50D126294125CF12274EA120A64744E
:10501300F01211708A0C8B0D8C088D0974261213F3
:10502300B2E0F514A3E0F5157512069003F51255D9
:10503300576023900375125009AA08AB091218C9C7
:105043008A108B11EA4511600D8A828B83A3E0706D
:10505300057900025346E50C241DF50EE50D3400D9
:10506300F50F850E82125543F51388828983A3A316
:10507300A3E0FA88828983A3A3A3A3E0F9EA240027
:10508300FEE439FFAA08AB091215A5850E82850F28
:1050930083125381E029F50BE50AA2E5500375124B
:1050A3000E7487550A70177418550A6418600FE553
:1050B3000C2417F582E50D12695365126007790117
:1050C30012284D808C530A78C3EE94F8EF94FF5066
:1050D3001D7900EEFAEFFB12535060128882898328
:1050E300A3A3A3A3A3A3E054186003025054780816
:1050F3001210C77D0012537412110FE9F87403687C
:105103007003025054E860030251BF7418550A70CB
:1051130003025274E50AD2E0F50AA2E45004D2E194
:10512300F50AA90A1259CA12535060538882898317
:10513300A3A3A3A3A3A3E05418604488828983A3F1
:10514300A3A3A3A3E064017036E51045116030907A
:1051530003751250098882898312535E8A0E8B0F5E
:10516300A80EA90FE849601788828983A3E0600F1E
:10517300851082851183A31264A25003025054E563
:105183000AF50E780E1210CB12536712110FE97045
:105193002B7C007D0085148285158374FFF0A3F0BA
:1051A300850C82850D83A3A3A3A3A3A3A3A3E0607C
:1051B30003124FFEA90B1259CA1221758514828559
:1051C3001583E0F47003A3E0F460399003B4E06462
:1051D300027003025054125703E0FAA3E01247C2CD
:1051E300122AD4EA65087003EB6509600302505480
:1051F300EEFAEF1247C2122AD4851482851583EA88
:10520300F0A3EBF078081210C77D0112537412114A
:105213000FA90AEEFAEFFB1215F98A088B09A80801
:10522300A909900368E0687003A3E069600302536F
:1052330037EEFAEFFB1213FB8A088B09A808A909BA
:10524300E849606E88828983A3A3A3A3E064016015
:105253000D88828983A3A3A3A3E0640270548518F5
:1052630082851983AC82AD83EEFAEFFB122A0380A9
:1052730055900361E0600FE50AF50E780E1210CB2E
:1052830012536712110FE50AF50E780E1210CB793F
:10529300027CFE7DFFEEFAEFFB12553312110FE98C
:1052A30060030251BF85148285158374FFF0A30246
:1052B3005206121767EAFCEBFD851882851983AA4B
:1052C30082AB83122865850C82850D83A3A3A3A3D8
:1052D300A3A3A3A3E06401700F124FFE740812137B
:1052E300B2AA82AB8312286512550D12611944309C
:1052F300F50878081210CB74011213B28582088561
:10530300830978081210C7740B1213B285820885BB
:10531300830978081210C7E513F50878081210CB33
:105323007900EEFCEFFD1259CA12153F74061211F3
:105333000F02505412550D126283125381E50BF084
:1053430012177F741012110F7F0E020E021215ED49
:105353008A0E8B0FA80EA90FE84922A3A3125E7031
:105363001218C9227901AC08AD09125E65125533D2
:1053730022AC0BA913125E651215AB7402221261E3
:1053830021A3A3A3A32274F0120A6474F012117070
:105393008A0C8B0DECFAEDFB750F089003F5125593
:1053A30057601412649B8A828B83E582458360076E
:1053B300A3E0700302550812550D3400125543F54E
:1053C3000B88828983125516E0FBEC2400FEE43B34
:1053D300FF88828983A3A3125516A3A3E0FBECF5F0
:1053E30008E43BF50988828983A3A3A3A3A3A3A30A
:1053F300E0F50EE50AA2E45003750F10A2E550068E
:105403007408250FF50F748F550A700FE50C2417D8
:10541300F582E50D126953650F6008790112284D75
:10542300025508530A707800E50AA2E45022125587
:105433000D1269532408FCA3E03400FD7408121311
:10544300B2AA82AB831228657808E50AC2E4F50A9A
:10545300E50AA2E5502812550D12695328F8A3E076
:105463003400F9E82408FCE93400FD851882851925
:1054730083AA82AB83122865E50AC2E5F50AAC0E5E
:10548300A90BEEFAEFFB1215B1E9F8740368607526
:10549300900368E06E7003A3E06F605EE87054E50C
:1054A3000AF50F780F1210CB12552412110FE97061
:1054B30054780A1210CB74011213B285820C8583BF
:1054C3000D780C1210C7740B1213B285820C8583EE
:1054D3000D780C1210C7E50BF50A780A1210CBA948
:1054E3000EAC08AD09EEFAEFFB12153F740612116C
:1054F3000F8012740468700D80B7780A1210CB12F3
:10550300552412110F7410024CCDE50C241DF582A5
:10551300E50D22A3A3A3E0FC88828983A3A3A3A30D
:1055230022790112570A1262941255391255332205
:10553300121569740122E0FCA3E0FDAA08AB09225D
:10554300F583124949A3E0F50A88828983A3A3E07E
:1055530022900339125ECC2274E8120A6474F512A5
:105563001170EAFEEBFF8C088D0989147423121362
:10557300B2E0F50F74241213B2E0F512A3E0F513B1
:1055830074261213B2E0F516A3E0F517742812136C
:10559300B2E0F50EA90F1215B78A108B1174011220
:1055A30013B27408F0E50EA2E450037410F0E50E94
:1055B300A2E55004E02408F0851882851983AA82A5
:1055C300AB831217C78A0C8B0DEA450D7003025685
:1055D300EAEA2417F582EB1256FC121767E50C244E
:1055E3001AF582E50D12628312425274031213B24A
:1055F300AC82AD83AA10AB11122A03E9601D1256C7
:10560300F474031213B2A882A983E50C2418F5825B
:10561300E50D126283E8F0A3E98024E50EA2E450CD
:105623001FE5106E7003E5116F70151256F4E50C4B
:105633002418F582E50D126283E512F0A3E513F059
:10564300125703125712850A82F5837402F0A3E5F9
:105653000E12571AE50FF0EE850A82850B83A3A37A
:10566300A3F0EF850A82850B83A3A3A3A312571A82
:10567300A3A3A3E508F0E509850A82850B83A3A309
:10568300A3A3A3A3F0AA10AB111215A5E9251485B2
:105693000A82850B83A3A3A3A3A3A3A3F075080086
:1056A300E50EA2E45011AC12AD13E50A2408FAE5A5
:1056B3000B124C86750808E50EA2E55014AC16AD26
:1056C30017E50A2508F8E50B3400F9E82408124C1D
:1056D30084850C82850D83A3A3E510F0A3E511F067
:1056E300AA0CAB0D121437740B12110F7F10020E9C
:1056F30002E50C2416F582E50D1262947401F02282
:1057030012570A12629422E50C12729AE50D22E0F6
:10571300F50AA3E0F50B22F0850A82850B83A3A388
:105723002274F2120A648A088B09ECFEEDFF890ADF
:1057330079001257B87003A3E0697004790180738C
:10574300750B01900368E065087004A3E0650960C8
:105753001F750B00780B1210CBA90AEEFCEFFDAA04
:1057630008AB0912181B740112110FE9F50B8041E4
:105773007900EEFAEFFB1215EDEA4B602B8A828B70
:1057830083A3A3A3A3A3A3E05418601C7508FE7509
:1057930009FF78081210C78A828B83A3A3120EC154
:1057A3001270AF12110F80097901EEFAEFFB121498
:1057B300C7A90B80141215F98A0C8B0DA80CA90D1F
:1057C300900368E0682212110F7F06020E0274F440
:1057D300120A6475087375090E7A10126DB78B0B74
:1057E300EA450B7003124AE0900353E014F0700C87
:1057F300902ED2E493900353F01216057E007F009F
:10580300806C850882850983A3A3A3A3E06059F470
:105813006056E5082404F582E50912677F7049851F
:105823000882850983A3A3A3A3A3E0640370197962
:1058330002850882850983125009850882850983B8
:10584300A3A31259D1121545850882850983A3A301
:10585300A3A3A3E06401601085088285098374FE15
:10586300F0A30412592BE4F0123CA3123AF5902E44
:10587300C9126F13408C7E007F00803912170D8E82
:10588300088F09740378081212AF74EB2508FC74AF
:105893000F3509FD7A517B151216FBEA4B70DD8E2D
:1058A300088F09740378081212AF1258F912715A4B
:1058B300E4F0123CA3902ED4E493F8C3EE98EF9453
:1058C30000501B8E088F09740378081212AF125907
:1058D30001E82407F582E912677F70D680A17E0074
:1058E3007F00800A12590C600214F0123CA3126F5D
:1058F3001040F102448F125901888289832274EB8C
:105903002508F8740F3509F922EEF8EFF9E875F078
:1059130006A4F8AAF075F006E9A42AF9748B28F511
:1059230082740F39F583E022125932A3A3A322F024
:10593300850882850983A3A32274F7120A6474E19C
:10594300121170ECFEEDFF750800EE4F60728A8253
:105953008B83E0241C1267B012555760638A828BD5
:10596300831259D1851882851983AC82AD83EA24C9
:105973001BF582EB126681EA241CF582EB1259CDEA
:1059830012174F740B1213B21259D57003A3E069A7
:10599300702E74021213B2E064017024741D12138A
:1059A300B21247C6E064017017741D1213B2124796
:1059B300C8A3A3E0F88E828F83E0687003750801A3
:1059C300A908741F02423F12570A3400F583125E7E
:1059D300702212344AE0682274F4120A64E97024D3
:1059E300790090034D1247C6122AD48A0A8B0BAE54
:1059F3000AAF0B74FE6E700374FF6F701A902EDB88
:105A0300E4936013790190034D1247C6122AD48A96
:105A13000A8B0BAE0AAF0B12178B023E0B74F612F6
:105A23000A6474F3121170121EF98A088B09AE0806
:105A3300AF09900368E06E7003A3E06F60E912178B
:105A430073EA6E7002EB6F60DEEEFAEFFB1217DFA4
:105A5300E970D4EE4F60D0851882851983E4F00491
:105A63001213B2EEF0A3EF125A83E970BA74FE6E0A
:105A7300700374FF6F60B0EEFAEFFB740D0242EB3C
:105A830012437012296122C082C08312178B024015
:105A9300B67F0A020E0274F2120A64EAFEEBFF8C6E
:105AA3000A8D0B8908740E1213B2E0F50974FC6EAB
:105AB300700374FF6F700579000257CC79001215DB
:105AC300F98A0C8B0DAE0CAF0D900368E06E70037A
:105AD300A3E06F7006E509A2E650DCA909126F9DE9
:105AE300706179007AFE7BFF126F9D7056741855B2
:105AF300097003025BD0780079008003123644906A
:105B03002EC912363B4003025BD0E8FAE9FBEA7583
:105B1300F007A4FAACF075F007EBA42CFB74792A18
:105B2300F582740E3BF583E0541870D0E875F007E6
